{
  "contractName": "Evolution",
  "abi": [
    {
      "inputs": [
        {
          "internalType": "contract IERC20",
          "name": "_gen",
          "type": "address"
        },
        {
          "internalType": "contract GenNFT",
          "name": "_nft",
          "type": "address"
        }
      ],
      "stateMutability": "nonpayable",
      "type": "constructor"
    },
    {
      "anonymous": false,
      "inputs": [
        {
          "indexed": true,
          "internalType": "address",
          "name": "previousOwner",
          "type": "address"
        },
        {
          "indexed": true,
          "internalType": "address",
          "name": "newOwner",
          "type": "address"
        }
      ],
      "name": "OwnershipTransferred",
      "type": "event"
    },
    {
      "inputs": [
        {
          "internalType": "uint256",
          "name": "",
          "type": "uint256"
        }
      ],
      "name": "blockHashForEvo",
      "outputs": [
        {
          "internalType": "uint256",
          "name": "",
          "type": "uint256"
        }
      ],
      "stateMutability": "view",
      "type": "function"
    },
    {
      "inputs": [
        {
          "internalType": "uint256",
          "name": "",
          "type": "uint256"
        }
      ],
      "name": "bonuses",
      "outputs": [
        {
          "internalType": "uint256",
          "name": "",
          "type": "uint256"
        }
      ],
      "stateMutability": "view",
      "type": "function"
    },
    {
      "inputs": [
        {
          "internalType": "address",
          "name": "",
          "type": "address"
        }
      ],
      "name": "depositBlock",
      "outputs": [
        {
          "internalType": "uint256",
          "name": "",
          "type": "uint256"
        }
      ],
      "stateMutability": "view",
      "type": "function"
    },
    {
      "inputs": [],
      "name": "evoTime",
      "outputs": [
        {
          "internalType": "uint256",
          "name": "",
          "type": "uint256"
        }
      ],
      "stateMutability": "view",
      "type": "function"
    },
    {
      "inputs": [
        {
          "internalType": "uint256",
          "name": "",
          "type": "uint256"
        },
        {
          "internalType": "address",
          "name": "",
          "type": "address"
        }
      ],
      "name": "evolutions",
      "outputs": [
        {
          "internalType": "uint256",
          "name": "",
          "type": "uint256"
        }
      ],
      "stateMutability": "view",
      "type": "function"
    },
    {
      "inputs": [],
      "name": "gen",
      "outputs": [
        {
          "internalType": "contract IERC20",
          "name": "",
          "type": "address"
        }
      ],
      "stateMutability": "view",
      "type": "function"
    },
    {
      "inputs": [],
      "name": "higherBeing",
      "outputs": [
        {
          "internalType": "uint256",
          "name": "",
          "type": "uint256"
        }
      ],
      "stateMutability": "view",
      "type": "function"
    },
    {
      "inputs": [],
      "name": "nft",
      "outputs": [
        {
          "internalType": "contract GenNFT",
          "name": "",
          "type": "address"
        }
      ],
      "stateMutability": "view",
      "type": "function"
    },
    {
      "inputs": [
        {
          "internalType": "address",
          "name": "",
          "type": "address"
        },
        {
          "internalType": "address",
          "name": "",
          "type": "address"
        },
        {
          "internalType": "uint256",
          "name": "",
          "type": "uint256"
        },
        {
          "internalType": "bytes",
          "name": "",
          "type": "bytes"
        }
      ],
      "name": "onERC721Received",
      "outputs": [
        {
          "internalType": "bytes4",
          "name": "",
          "type": "bytes4"
        }
      ],
      "stateMutability": "nonpayable",
      "type": "function"
    },
    {
      "inputs": [],
      "name": "owner",
      "outputs": [
        {
          "internalType": "address",
          "name": "",
          "type": "address"
        }
      ],
      "stateMutability": "view",
      "type": "function"
    },
    {
      "inputs": [
        {
          "internalType": "uint256",
          "name": "",
          "type": "uint256"
        }
      ],
      "name": "prices",
      "outputs": [
        {
          "internalType": "uint256",
          "name": "",
          "type": "uint256"
        }
      ],
      "stateMutability": "view",
      "type": "function"
    },
    {
      "inputs": [],
      "name": "renounceOwnership",
      "outputs": [],
      "stateMutability": "nonpayable",
      "type": "function"
    },
    {
      "inputs": [],
      "name": "startBlock",
      "outputs": [
        {
          "internalType": "uint256",
          "name": "",
          "type": "uint256"
        }
      ],
      "stateMutability": "view",
      "type": "function"
    },
    {
      "inputs": [
        {
          "internalType": "address",
          "name": "newOwner",
          "type": "address"
        }
      ],
      "name": "transferOwnership",
      "outputs": [],
      "stateMutability": "nonpayable",
      "type": "function"
    },
    {
      "inputs": [
        {
          "internalType": "address",
          "name": "",
          "type": "address"
        }
      ],
      "name": "userNFT",
      "outputs": [
        {
          "internalType": "uint256",
          "name": "",
          "type": "uint256"
        }
      ],
      "stateMutability": "view",
      "type": "function"
    },
    {
      "inputs": [
        {
          "internalType": "uint256",
          "name": "",
          "type": "uint256"
        }
      ],
      "name": "winChances",
      "outputs": [
        {
          "internalType": "uint256",
          "name": "",
          "type": "uint256"
        }
      ],
      "stateMutability": "view",
      "type": "function"
    },
    {
      "inputs": [],
      "name": "start",
      "outputs": [],
      "stateMutability": "nonpayable",
      "type": "function"
    },
    {
      "inputs": [],
      "name": "evoIndex",
      "outputs": [
        {
          "internalType": "uint256",
          "name": "",
          "type": "uint256"
        }
      ],
      "stateMutability": "view",
      "type": "function"
    },
    {
      "inputs": [
        {
          "internalType": "uint256",
          "name": "index",
          "type": "uint256"
        }
      ],
      "name": "blockForEvoClaim",
      "outputs": [
        {
          "internalType": "uint256",
          "name": "",
          "type": "uint256"
        }
      ],
      "stateMutability": "view",
      "type": "function"
    },
    {
      "inputs": [
        {
          "internalType": "uint256",
          "name": "amount",
          "type": "uint256"
        }
      ],
      "name": "joinEvolution",
      "outputs": [],
      "stateMutability": "nonpayable",
      "type": "function"
    },
    {
      "inputs": [],
      "name": "claimLastEvolution",
      "outputs": [],
      "stateMutability": "nonpayable",
      "type": "function"
    },
    {
      "inputs": [
        {
          "internalType": "uint256",
          "name": "_nftId",
          "type": "uint256"
        }
      ],
      "name": "depositNFT",
      "outputs": [],
      "stateMutability": "nonpayable",
      "type": "function"
    },
    {
      "inputs": [],
      "name": "withdrawNFT",
      "outputs": [],
      "stateMutability": "nonpayable",
      "type": "function"
    },
    {
      "inputs": [
        {
          "internalType": "address",
          "name": "user",
          "type": "address"
        }
      ],
      "name": "bonus",
      "outputs": [
        {
          "internalType": "uint256",
          "name": "",
          "type": "uint256"
        }
      ],
      "stateMutability": "view",
      "type": "function"
    },
    {
      "inputs": [
        {
          "internalType": "uint256",
          "name": "nftTypeId",
          "type": "uint256"
        },
        {
          "internalType": "uint256",
          "name": "_bonus",
          "type": "uint256"
        }
      ],
      "name": "updateBonus",
      "outputs": [],
      "stateMutability": "nonpayable",
      "type": "function"
    },
    {
      "inputs": [
        {
          "internalType": "uint256",
          "name": "nftTypeId",
          "type": "uint256"
        },
        {
          "internalType": "uint256",
          "name": "price",
          "type": "uint256"
        }
      ],
      "name": "updatePrice",
      "outputs": [],
      "stateMutability": "nonpayable",
      "type": "function"
    },
    {
      "inputs": [
        {
          "internalType": "uint256",
          "name": "_time",
          "type": "uint256"
        }
      ],
      "name": "updateEvoTime",
      "outputs": [],
      "stateMutability": "nonpayable",
      "type": "function"
    },
    {
      "inputs": [
        {
          "internalType": "uint256",
          "name": "nftTypeId",
          "type": "uint256"
        },
        {
          "internalType": "uint256",
          "name": "chance",
          "type": "uint256"
        }
      ],
      "name": "updateWinChance",
      "outputs": [],
      "stateMutability": "nonpayable",
      "type": "function"
    },
    {
      "inputs": [
        {
          "internalType": "uint256",
          "name": "_higherBeing",
          "type": "uint256"
        }
      ],
      "name": "updateParams",
      "outputs": [],
      "stateMutability": "nonpayable",
      "type": "function"
    },
    {
      "inputs": [],
      "name": "getParams",
      "outputs": [
        {
          "components": [
            {
              "internalType": "uint256",
              "name": "price",
              "type": "uint256"
            },
            {
              "internalType": "uint256",
              "name": "bonus",
              "type": "uint256"
            },
            {
              "internalType": "uint256",
              "name": "winChance",
              "type": "uint256"
            }
          ],
          "internalType": "struct Param[]",
          "name": "",
          "type": "tuple[]"
        }
      ],
      "stateMutability": "view",
      "type": "function"
    }
  ],
  "bytecode": "0x60806040526007805561708060085560006009553480156200002057600080fd5b50604051620020b7380380620020b78339810160408190526200004391620004b6565b60006200004f620004b2565b600080546001600160a01b0319166001600160a01b0383169081178255604051929350917f8be0079c531659141344cd1fd0a4f28419497f9722a3daafe3b4186f6b6457e0908290a350600c80546001600160a01b039384166001600160a01b031991821617909155600b805492909316911617905560007f3617319a054d772f909f7c479a2cebe5066e836a939412e32403c99029b92eff81905560027fa15bc60c955c405d20d9149c709e2460f1c2d9a497496a7f46004d1772c3054c81905560057fc3a24b0501bd2c13a7e57f2db4369ec4c223447539fc0724a9d55ac4a06ebd4d81905560097fcbc4e5fb02c3d1de23a9f1e014b4d2ee5aeaea9505df5e855c9210bf472495af55600e7f83ec6a1f0257b830b5e016457c9cf1435391bf56cc98f369a58a54fe937724655560147f405aad32e1adbac89bb7f176e338b8fc6e994ca210c9bb7bdca249b465942250819055601b7fc69056f16cbaa3c616b828e333ab7d3a32310765507f8f58359e99ebb7a885f35560237ff2c49132ed1cee2a7e75bde50d332a2f81f1d01e5456d8a19d1df09bd561dbd281905560327f85aaa47b6dc46495bb8824fad4583769726fea36efd831a35556690b830a8fbe8190557fac33ff75c19e70fe83507db0d683fd3465c996598dc972688b7ace676c89077b86905560037fe90b7bceb6e7df5418fb78d8ee546e97c83a08bbccc01a0644d599ccd2a7c2e08190557f679795a0195a1b76cdebb7c51d74e058aee92919b8c3389af86ef24535e8a28c85905560077f88601476d11616a71c5be67555bd1dff4b1cbf21533d2669b768b61518cfe1c355600a7fee60d0579bcffd98e668647d59fec1ff86a7fb340ce572e844f234ae73a6918f819055600f7fb98b78633099fa36ed8b8680c4f8092689e1e04080eb9cbb077ca38a14d7e384557f59dd4b18488d12f51eda69757a0ed42a2010c14b564330cc74a06895e60c077b94909455601e7facd8ef244210bb6898e73c48bf820ed8ecc857a3bab8d79c10e4fa92b1e9ca65557f3a5ea591190eeb3f8fcdced843c78df04ec0dfd42f5510375207515664fa0a7582905560016020527fa6eef7e35abe7026729641147f7915573c7e97b47efa546f5f6e3230263bcb498790557fcc69885fda6bcc1a4ace058b4a62bf5e179ea78fd58a1ccd71c22cc9b688792f919091557fd9d16d34ffb15ba3a3d852f0d403e2ce1d691fb54de27ac87cd2f993f3ec330f9190915560197f7dfe757ecd65cbd7922a9c0161e935dd7fdbcc0e999689c7d31633896b1fc60b5560107fedc95719e9a3b28dd8e80877cb5880a9be7de1a13fc8b05e7999683b6b567643557fe2689cd4a84e23ad2f564004f1c9013e9589d260bde6380aba3ca7e09e4df40c919091557f8f331abe73332f95a25873e8b430885974c0409691f89d643119a11623a7924a919091557fdc686ec4a0ff239c70e7c7c36e8f853eced3bc8618f48d2b816da2a74311237e5560089091527f4db623e5c4870b62d3fc9b4e8f893a1a77627d75ab45d9ff7e56ba19564af99b556200050d565b3390565b60008060408385031215620004c9578182fd5b8251620004d681620004f4565b6020840151909250620004e981620004f4565b809150509250929050565b6001600160a01b03811681146200050a57600080fd5b50565b611b9a806200051d6000396000f3fe608060405234801561001057600080fd5b50600436106101d95760003560e01c806382367b2d11610104578063b42dfa0d116100a2578063e0fc424c11610071578063e0fc424c14610387578063e91a7ca61461039a578063f2fde38b146103ad578063fb19507b146103c0576101d9565b8063b42dfa0d14610351578063bc31c1c114610359578063be9a65551461036c578063d8cb4aa314610374576101d9565b8063a5749187116100de578063a574918714610310578063a643679c14610323578063a89a42f01461032b578063ab3756411461033e576101d9565b806382367b2d146102e25780638da5cb5b146102f55780638e5c1308146102fd576101d9565b806347ccca021161017c5780635e615a6b1161014b5780635e615a6b1461029f578063715018a6146102b45780637c1b3300146102bc578063809a8562146102cf576101d9565b806347ccca021461027257806348cd4cb1146102875780635ce15ecd1461028f5780635e38c95414610297576101d9565b8063202019a6116101b8578063202019a61461023157806321a8e00b146102445780633429e67d1461025757806339068d1a1461026a576101d9565b8062c2378f146101de5780630fed99be14610207578063150b7a0214610211575b600080fd5b6101f16101ec36600461147b565b6103d3565b6040516101fe9190611a24565b60405180910390f35b61020f6103e5565b005b61022461021f366004611495565b610430565b6040516101fe9190611727565b6101f161023f36600461147b565b610440565b61020f610252366004611623565b610452565b61020f6102653660046115e0565b6104a3565b6101f16104e7565b61027a610509565b6040516101fe919061167d565b6101f1610518565b6101f161051e565b61020f610524565b6102a761076c565b6040516101fe91906116ce565b61020f610870565b6101f16102ca3660046115e0565b6108f9565b61020f6102dd366004611623565b61090b565b61020f6102f0366004611623565b61095c565b61027a6109ad565b6101f161030b3660046115e0565b6109bc565b61020f61031e3660046115e0565b6109ce565b6101f1610a12565b6101f16103393660046115e0565b610a18565b6101f161034c3660046115e0565b610a47565b61027a610a59565b6101f16103673660046115e0565b610a68565b61020f610a7a565b6101f161038236600461147b565b610aeb565b6101f16103953660046115f8565b610bac565b61020f6103a83660046115e0565b610bc9565b61020f6103bb36600461147b565b610c83565b61020f6103ce3660046115e0565b610d43565b60046020526000908152604090205481565b60006103ef6104e7565b90506000811161041a5760405162461bcd60e51b81526004016104119061183f565b60405180910390fd5b61042d610428600183611ab0565b610f3d565b50565b630a85bd0160e11b949350505050565b60056020526000908152604090205481565b61045a61123d565b6001600160a01b031661046b6109ad565b6001600160a01b0316146104915760405162461bcd60e51b815260040161041190611945565b60009182526003602052604090912055565b6104ab61123d565b6001600160a01b03166104bc6109ad565b6001600160a01b0316146104e25760405162461bcd60e51b815260040161041190611945565b600855565b6000600854600954436104fa9190611ab0565b6105049190611a7d565b905090565b600b546001600160a01b031681565b60095481565b60085481565b33600090815260046020526040902054806105515760405162461bcd60e51b8152600401610411906117e3565b3360009081526005602052604090205461056d90617080611a65565b431161058b5760405162461bcd60e51b81526004016104119061176f565b600b54604051634331052360e11b81526000916001600160a01b0316906386620a46906105bc908590600401611a24565b60606040518083038186803b1580156105d457600080fd5b505afa1580156105e8573d6000803e3d6000fd5b505050506040513d601f19601f8201168201806040525081019061060c9190611585565b51600b54604051632142170760e11b81529192506001600160a01b0316906342842e0e9061064290309033908790600401611691565b600060405180830381600087803b15801561065c57600080fd5b505af1158015610670573d6000803e3d6000fd5b5050336000908152600460205260408120819055915061069090506104e7565b600081815260066020908152604080832033845290915290205490915080156106f7576106dc336106c983670de0b6b3a7640000611a91565b600c546001600160a01b03169190611241565b60008281526006602090815260408083203384529091528120555b60008211801561073257506000600681610712600186611ab0565b815260208082019290925260409081016000908120338252909252902054115b15610766576000600681610747600186611ab0565b8152602080820192909252604090810160009081203382529092529020555b50505050565b60606000600754600161077f9190611a65565b67ffffffffffffffff8111156107a557634e487b7160e01b600052604160045260246000fd5b6040519080825280602002602001820160405280156107de57816020015b6107cb611443565b8152602001906001900390816107c35790505b50905060005b600754811161086a5760408051606081018252600083815260026020908152838220548352848252600381528382205481840152848252600190528290205491810191909152825183908390811061084c57634e487b7160e01b600052603260045260246000fd5b6020026020010181905250808061086290611af3565b9150506107e4565b50905090565b61087861123d565b6001600160a01b03166108896109ad565b6001600160a01b0316146108af5760405162461bcd60e51b815260040161041190611945565b600080546040516001600160a01b03909116907f8be0079c531659141344cd1fd0a4f28419497f9722a3daafe3b4186f6b6457e0908390a3600080546001600160a01b0319169055565b60016020526000908152604090205481565b61091361123d565b6001600160a01b03166109246109ad565b6001600160a01b03161461094a5760405162461bcd60e51b815260040161041190611945565b60009182526001602052604090912055565b61096461123d565b6001600160a01b03166109756109ad565b6001600160a01b03161461099b5760405162461bcd60e51b815260040161041190611945565b60009182526002602052604090912055565b6000546001600160a01b031690565b600a6020526000908152604090205481565b6109d661123d565b6001600160a01b03166109e76109ad565b6001600160a01b031614610a0d5760405162461bcd60e51b815260040161041190611945565b600755565b60075481565b6000610a25826001611a65565b600854610a329190611a91565b600954610a3f9190611a65565b90505b919050565b60036020526000908152604090205481565b600c546001600160a01b031681565b60026020526000908152604090205481565b610a8261123d565b6001600160a01b0316610a936109ad565b6001600160a01b031614610ab95760405162461bcd60e51b815260040161041190611945565b60095415610ad95760405162461bcd60e51b81526004016104119061197a565b600854610ae69043611ab0565b600955565b6001600160a01b03811660009081526004602052604081205480610b13576000915050610a42565b600b54604051634331052360e11b81526000916001600160a01b0316906386620a4690610b44908590600401611a24565b60606040518083038186803b158015610b5c57600080fd5b505afa158015610b70573d6000803e3d6000fd5b505050506040513d601f19601f82011682018060405250810190610b949190611585565b51600090815260036020526040902054949350505050565b600660209081526000928352604080842090915290825290205481565b3360009081526004602052604090205415610bf65760405162461bcd60e51b8152600401610411906117e3565b3360008181526005602052604090819020439055600b549051632142170760e11b81526001600160a01b03909116916342842e0e91610c3c919030908690600401611691565b600060405180830381600087803b158015610c5657600080fd5b505af1158015610c6a573d6000803e3d6000fd5b5050336000908152600460205260409020929092555050565b610c8b61123d565b6001600160a01b0316610c9c6109ad565b6001600160a01b031614610cc25760405162461bcd60e51b815260040161041190611945565b6001600160a01b038116610ce85760405162461bcd60e51b81526004016104119061179d565b600080546040516001600160a01b03808516939216917f8be0079c531659141344cd1fd0a4f28419497f9722a3daafe3b4186f6b6457e091a3600080546001600160a01b0319166001600160a01b0392909216919091179055565b3360009081526004602052604090205480610d705760405162461bcd60e51b815260040161041190611811565b600b54604051634331052360e11b81526000916001600160a01b0316906386620a4690610da1908590600401611a24565b60606040518083038186803b158015610db957600080fd5b505afa158015610dcd573d6000803e3d6000fd5b505050506040513d601f19601f82011682018060405250810190610df19190611585565b516007549091508110610e165760405162461bcd60e51b8152600401610411906118e7565b6000610e206104e7565b600083815260026020908152604080832054848452600683528184203385529092529091205491925090610e55908690611a65565b1015610e735760405162461bcd60e51b8152600401610411906118bc565b600c546001600160a01b03166323b872dd3330610e9888670de0b6b3a7640000611a91565b6040518463ffffffff1660e01b8152600401610eb693929190611691565b602060405180830381600087803b158015610ed057600080fd5b505af1158015610ee4573d6000803e3d6000fd5b505050506040513d601f19601f82011682018060405250810190610f08919061154d565b50600081815260066020908152604080832033845290915281208054869290610f32908490611a65565b909155505050505050565b600081815260066020908152604080832033845290915290205480610f745760405162461bcd60e51b815260040161041190611915565b3360009081526004602052604090205480610fa15760405162461bcd60e51b815260040161041190611811565b600b54604051634331052360e11b81526000916001600160a01b0316906386620a4690610fd2908590600401611a24565b60606040518083038186803b158015610fea57600080fd5b505afa158015610ffe573d6000803e3d6000fd5b505050506040513d601f19601f820116820180604052508101906110229190611585565b5160075490915081106110475760405162461bcd60e51b8152600401610411906118e7565b6000848152600a602052604090205461108057606461106585610a18565b611070919040611b0e565b6000858152600a60205260409020555b600060646002336040516020016110979190611644565b60408051601f19818403018152908290526110b191611661565b602060405180830381855afa1580156110ce573d6000803e3d6000fd5b5050506040513d601f19601f820116820180604052508101906110f1919061156d565b6110fb9190611b0e565b6000868152600a602052604081205491925060646111198484611a65565b6111239190611b0e565b61112e906001611a65565b60008581526002602090815260408083205460019092528220549293509091611158908990611a91565b6111629190611a7d565b821180159150611217576000858152600160209081526040808320546002909252909120546111aa9133916111a090680410d586a20a4c0000611a91565b6106c99190611a7d565b600b546001600160a01b03166309566011876111c7886001611a65565b6040518363ffffffff1660e01b81526004016111e4929190611a2d565b600060405180830381600087803b1580156111fe57600080fd5b505af1158015611212573d6000803e3d6000fd5b505050505b505050600094855250506006602090815260408085203386529091528320929092555050565b3390565b6112978363a9059cbb60e01b84846040516024016112609291906116b5565b60408051601f198184030181529190526020810180516001600160e01b03166001600160e01b03199093169290921790915261129c565b505050565b60006112f1826040518060400160405280602081526020017f5361666545524332303a206c6f772d6c6576656c2063616c6c206661696c6564815250856001600160a01b031661132b9092919063ffffffff16565b805190915015611297578080602001905181019061130f919061154d565b6112975760405162461bcd60e51b8152600401610411906119da565b606061133a8484600085611344565b90505b9392505050565b6060824710156113665760405162461bcd60e51b815260040161041190611876565b61136f85611404565b61138b5760405162461bcd60e51b8152600401610411906119a3565b600080866001600160a01b031685876040516113a79190611661565b60006040518083038185875af1925050503d80600081146113e4576040519150601f19603f3d011682016040523d82523d6000602084013e6113e9565b606091505b50915091506113f982828661140a565b979650505050505050565b3b151590565b6060831561141957508161133d565b8251156114295782518084602001fd5b8160405162461bcd60e51b8152600401610411919061173c565b60405180606001604052806000815260200160008152602001600081525090565b80356001600160a01b0381168114610a4257600080fd5b60006020828403121561148c578081fd5b61133d82611464565b600080600080608085870312156114aa578283fd5b6114b385611464565b935060206114c2818701611464565b935060408601359250606086013567ffffffffffffffff808211156114e5578384fd5b818801915088601f8301126114f8578384fd5b81358181111561150a5761150a611b4e565b61151c601f8201601f19168501611a3b565b91508082528984828501011115611531578485fd5b8084840185840137810190920192909252939692955090935050565b60006020828403121561155e578081fd5b8151801515811461133d578182fd5b60006020828403121561157e578081fd5b5051919050565b600060608284031215611596578081fd5b6040516060810181811067ffffffffffffffff821117156115b9576115b9611b4e565b80604052508251815260208301516020820152604083015160408201528091505092915050565b6000602082840312156115f1578081fd5b5035919050565b6000806040838503121561160a578182fd5b8235915061161a60208401611464565b90509250929050565b60008060408385031215611635578182fd5b50508035926020909101359150565b60609190911b6bffffffffffffffffffffffff1916815260140190565b60008251611673818460208701611ac7565b9190910192915050565b6001600160a01b0391909116815260200190565b6001600160a01b039384168152919092166020820152604081019190915260600190565b6001600160a01b03929092168252602082015260400190565b602080825282518282018190526000919060409081850190868401855b8281101561171a57815180518552868101518786015285015185850152606090930192908501906001016116eb565b5091979650505050505050565b6001600160e01b031991909116815260200190565b600060208252825180602084015261175b816040850160208701611ac7565b601f01601f19169190910160400192915050565b602080825260149082015273706c65617365207761697420323420686f75727360601b604082015260600190565b60208082526026908201527f4f776e61626c653a206e6577206f776e657220697320746865207a65726f206160408201526564647265737360d01b606082015260800190565b6020808252601490820152731d5cd95c88185b1c9958591e481a185cc813919560621b604082015260600190565b6020808252601490820152731d5cd95c881cda1bdd5b19081a185d994813919560621b604082015260600190565b60208082526018908201527f45766f6c7574696f6e206e657665722068617070656e65640000000000000000604082015260600190565b60208082526026908201527f416464726573733a20696e73756666696369656e742062616c616e636520666f6040820152651c8818d85b1b60d21b606082015260800190565b6020808252601190820152704c657373207468616e206d696e696d756d60781b604082015260600190565b602080825260149082015273596f752061726520484947484552204245494e4760601b604082015260600190565b602080825260169082015275596f75206469646e277420706172746963697061746560501b604082015260600190565b6020808252818101527f4f776e61626c653a2063616c6c6572206973206e6f7420746865206f776e6572604082015260600190565b6020808252600f908201526e7374617274656420616c726561647960881b604082015260600190565b6020808252601d908201527f416464726573733a2063616c6c20746f206e6f6e2d636f6e7472616374000000604082015260600190565b6020808252602a908201527f5361666545524332303a204552433230206f7065726174696f6e20646964206e6040820152691bdd081cdd58d8d9595960b21b606082015260800190565b90815260200190565b918252602082015260400190565b60405181810167ffffffffffffffff81118282101715611a5d57611a5d611b4e565b604052919050565b60008219821115611a7857611a78611b22565b500190565b600082611a8c57611a8c611b38565b500490565b6000816000190483118215151615611aab57611aab611b22565b500290565b600082821015611ac257611ac2611b22565b500390565b60005b83811015611ae2578181015183820152602001611aca565b838111156107665750506000910152565b6000600019821415611b0757611b07611b22565b5060010190565b600082611b1d57611b1d611b38565b500690565b634e487b7160e01b600052601160045260246000fd5b634e487b7160e01b600052601260045260246000fd5b634e487b7160e01b600052604160045260246000fdfea264697066735822122017d1de8ee1e5e07297b4d69b5692f28c89dd3350df6ab066053ce24b60e3195b64736f6c63430008000033",
  "immutableReferences": {},
  "source": "// SPDX-License-Identifier: MIT\n\npragma solidity 0.8.0;\npragma experimental ABIEncoderV2;\n\nimport \"../oz/utils/structs/EnumerableSet.sol\";\nimport \"../oz/access/Ownable.sol\";\nimport \"../oz/token/ERC20/ERC20.sol\";\nimport \"../oz/token/ERC20/IERC20.sol\";\nimport \"../oz/token/ERC20/utils/SafeERC20.sol\";\nimport \"../oz/token/ERC721/utils/ERC721Holder.sol\";\nimport '../oz/token/ERC721/IERC721.sol';\nimport \"../oz/utils/math/SafeMath.sol\";\nimport \"./GenNFT.sol\";\n\n    \nstruct Param {\n    uint price;\n    uint bonus;\n    uint winChance;\n}\n\ncontract Evolution is Ownable, ERC721Holder {\n    using SafeERC20 for IERC20;\n    using SafeMath for uint;\n    \n    mapping (uint => uint) public winChances; // chance To Win evolution\n    mapping (uint => uint) public prices; // minimum price for evolution\n    mapping (uint => uint) public bonuses; // nftTypeId -> bonus\n    mapping (address => uint) public userNFT; // user -> nftId\n    mapping (address => uint) public depositBlock; // NFT deposited block\n    \n    mapping (uint256 => mapping (address => uint)) public evolutions; // evoIndex -> user -> payment\n    \n    uint public higherBeing = 7;\n    uint public evoTime = 24 * 3600 / 3;\n\n    uint public startBlock = 0;\n    mapping (uint => uint) public blockHashForEvo; // evo -> blockHash\n    \n    \n    GenNFT public nft;\n    IERC20 public gen;\n    \n    constructor(IERC20 _gen, GenNFT _nft) {\n        gen = _gen;\n        nft = _nft;\n        \n        bonuses[0] = 0;\n        bonuses[1] = 2;\n        bonuses[2] = 5;\n        bonuses[3] = 9;\n        bonuses[4] = 14;\n        bonuses[5] = 20;\n        bonuses[6] = 27;\n        bonuses[7] = 35;\n        bonuses[8] = 50;\n        \n        prices[0] = 0;\n        prices[1] = 3;\n        prices[2] = 5;\n        prices[3] = 7;\n        prices[4] = 10;\n        prices[5] = 15;\n        prices[6] = 20;\n        prices[7] = 30;\n        prices[8] = 50;\n        \n        winChances[0] = 0;\n        winChances[1] = 50;\n        winChances[2] = 35;\n        winChances[3] = 25;\n        winChances[4] = 16;\n        winChances[5] = 10;\n        winChances[6] = 5;\n        winChances[7] = 3;\n        winChances[8] = 2;\n    }\n    \n    function start() public onlyOwner {\n        require(startBlock == 0, \"started already\");   \n        startBlock = block.number - evoTime;\n    }\n    \n    function evoIndex() public view returns (uint) {\n        return (block.number - startBlock) / evoTime;\n    }\n    \n    function blockForEvoClaim(uint index) public view returns (uint) {\n        return startBlock + evoTime * (index + 1);\n    }\n    \n    function joinEvolution(uint amount) public {\n        uint nftId = userNFT[msg.sender];\n        require(nftId != 0, \"user should have NFT\");   \n        \n        \n        uint nftTypId = nft.getTypeByTokenId(nftId).id;\n        require(nftTypId < higherBeing, \"You are HIGHER BEING\");   \n        \n        uint eIndex = evoIndex();\n        require(evolutions[eIndex][msg.sender] + amount >= prices[nftTypId], \"Less than minimum\");   \n        \n        gen.transferFrom(msg.sender, address(this), amount * 1e18);\n        evolutions[eIndex][msg.sender] += amount;\n    }\n    \n    function claimLastEvolution() public {\n        uint eIndex = evoIndex();\n        require(eIndex > 0, \"Evolution never happened\");   \n        claimEvolution(eIndex - 1);\n    }\n    \n    function claimEvolution(uint eIndex) internal {\n        // require(eIndex < evoIndex(), \"Evolution haven't happened yet\");   \n        \n        uint amount = evolutions[eIndex][msg.sender];\n        require(amount > 0, \"You didn't participate\");\n        \n        uint nftId = userNFT[msg.sender];\n        require(nftId != 0, \"user should have NFT\");   \n        \n        uint nftTypId = nft.getTypeByTokenId(nftId).id;\n        require(nftTypId < higherBeing, \"You are HIGHER BEING\");   \n        \n        \n        if (blockHashForEvo[eIndex] == 0) {\n            blockHashForEvo[eIndex] = uint256(blockhash(blockForEvoClaim(eIndex))) % 100;\n        } \n        \n        uint user = uint(sha256((abi.encodePacked(msg.sender)))) % 100;\n        uint blockHash = blockHashForEvo[eIndex];\n        \n        uint result = (blockHash + user) % 100 + 1;\n\n        bool win = result <= (winChances[nftTypId] * amount / prices[nftTypId]);\n        \n        if (win) {\n            gen.safeTransfer(msg.sender, 75 * 1e18 * prices[nftTypId] / winChances[nftTypId]);\n            nft.changeType(nftId, nftTypId + 1);\n        }\n        \n        evolutions[eIndex][msg.sender] = 0;\n    }\n    \n    function depositNFT(uint _nftId) public {\n        require(userNFT[msg.sender] == 0, \"user already has NFT\");\n        depositBlock[msg.sender] = block.number;\n        \n        nft.safeTransferFrom(address(msg.sender), address(this), _nftId);\n        userNFT[msg.sender] = _nftId;\n    }\n    \n    function withdrawNFT() public {\n        uint nftId = userNFT[msg.sender];\n        require(nftId != 0, \"user already has NFT\");\n        require(block.number > depositBlock[msg.sender] + 28800, \"please wait 24 hours\");\n        \n        uint nftTypId = nft.getTypeByTokenId(nftId).id;\n        \n        \n        nft.safeTransferFrom(address(this), address(msg.sender), nftId);\n        userNFT[msg.sender] = 0;\n        \n        uint eIndex = evoIndex();\n        uint amount = evolutions[eIndex][msg.sender];\n        if (amount > 0) {\n            gen.safeTransfer(msg.sender, amount * 1e18);\n            evolutions[eIndex][msg.sender] = 0;\n        }\n        \n        if (eIndex > 0 && evolutions[eIndex - 1][msg.sender] > 0) {\n            evolutions[eIndex - 1][msg.sender] = 0;\n        }\n    }\n    \n    function bonus(address user) public view returns (uint) {\n        uint nftId = userNFT[user];\n        if (nftId == 0) {\n            return 0;\n        }\n        \n        uint nftTypId = nft.getTypeByTokenId(nftId).id;\n        return bonuses[nftTypId];\n    }\n    \n\n    function updateBonus(uint nftTypeId, uint _bonus) public onlyOwner {\n        bonuses[nftTypeId] = _bonus;\n    }\n    \n    function updatePrice(uint nftTypeId, uint price) public onlyOwner {\n        prices[nftTypeId] = price;\n    }\n    \n    function updateEvoTime(uint _time) public onlyOwner {\n        evoTime = _time;\n    }\n    \n    function updateWinChance(uint nftTypeId, uint chance) public onlyOwner {\n        winChances[nftTypeId] = chance;\n    }\n    \n    function updateParams(uint _higherBeing) public onlyOwner {\n        higherBeing = _higherBeing;\n    }\n\n    function getParams() public view returns(Param[] memory) {\n        Param[] memory params = new Param[](higherBeing + 1);\n        for (uint256 i = 0; i <= higherBeing; i++) {\n            params[i] = Param(prices[i], bonuses[i], winChances[i]);\n        }\n        return params;\n    }\n}",
  "sourcePath": "/Users/alexei120991/Documents/Project/RUNNER/EVA/Test/contracts/Evolution.sol",
  "compiler": {
    "name": "solc",
    "version": "0.8.0+commit.c7dfd78e.Emscripten.clang"
  },
  "schemaVersion": "3.3.4",
  "updatedAt": "2021-07-08T12:53:22.966Z",
  "devdoc": {
    "kind": "dev",
    "methods": {
      "onERC721Received(address,address,uint256,bytes)": {
        "details": "See {IERC721Receiver-onERC721Received}. Always returns `IERC721Receiver.onERC721Received.selector`."
      },
      "owner()": {
        "details": "Returns the address of the current owner."
      },
      "renounceOwnership()": {
        "details": "Leaves the contract without owner. It will not be possible to call `onlyOwner` functions anymore. Can only be called by the current owner. NOTE: Renouncing ownership will leave the contract without an owner, thereby removing any functionality that is only available to the owner."
      },
      "transferOwnership(address)": {
        "details": "Transfers ownership of the contract to a new account (`newOwner`). Can only be called by the current owner."
      }
    },
    "version": 1
  },
  "userdoc": {
    "kind": "user",
    "methods": {},
    "version": 1
  }
}