{
  "contractName": "Fuse",
  "abi": [
    {
      "inputs": [
        {
          "internalType": "contract GenNFT",
          "name": "_nft",
          "type": "address"
        }
      ],
      "stateMutability": "nonpayable",
      "type": "constructor"
    },
    {
      "anonymous": false,
      "inputs": [
        {
          "indexed": true,
          "internalType": "address",
          "name": "previousOwner",
          "type": "address"
        },
        {
          "indexed": true,
          "internalType": "address",
          "name": "newOwner",
          "type": "address"
        }
      ],
      "name": "OwnershipTransferred",
      "type": "event"
    },
    {
      "inputs": [],
      "name": "nft",
      "outputs": [
        {
          "internalType": "contract GenNFT",
          "name": "",
          "type": "address"
        }
      ],
      "stateMutability": "view",
      "type": "function"
    },
    {
      "inputs": [
        {
          "internalType": "address",
          "name": "",
          "type": "address"
        },
        {
          "internalType": "address",
          "name": "",
          "type": "address"
        },
        {
          "internalType": "uint256",
          "name": "",
          "type": "uint256"
        },
        {
          "internalType": "bytes",
          "name": "",
          "type": "bytes"
        }
      ],
      "name": "onERC721Received",
      "outputs": [
        {
          "internalType": "bytes4",
          "name": "",
          "type": "bytes4"
        }
      ],
      "stateMutability": "nonpayable",
      "type": "function"
    },
    {
      "inputs": [],
      "name": "owner",
      "outputs": [
        {
          "internalType": "address",
          "name": "",
          "type": "address"
        }
      ],
      "stateMutability": "view",
      "type": "function"
    },
    {
      "inputs": [],
      "name": "renounceOwnership",
      "outputs": [],
      "stateMutability": "nonpayable",
      "type": "function"
    },
    {
      "inputs": [
        {
          "internalType": "address",
          "name": "newOwner",
          "type": "address"
        }
      ],
      "name": "transferOwnership",
      "outputs": [],
      "stateMutability": "nonpayable",
      "type": "function"
    },
    {
      "inputs": [
        {
          "internalType": "uint256[]",
          "name": "_nftIds",
          "type": "uint256[]"
        }
      ],
      "name": "fuseNFT",
      "outputs": [],
      "stateMutability": "nonpayable",
      "type": "function"
    }
  ],
  "bytecode": "0x608060405234801561001057600080fd5b5060405161104838038061104883398101604081905261002f916100ac565b60006100396100a8565b600080546001600160a01b0319166001600160a01b0383169081178255604051929350917f8be0079c531659141344cd1fd0a4f28419497f9722a3daafe3b4186f6b6457e0908290a350600180546001600160a01b0319166001600160a01b03929092169190911790556100da565b3390565b6000602082840312156100bd578081fd5b81516001600160a01b03811681146100d3578182fd5b9392505050565b610f5f806100e96000396000f3fe608060405234801561001057600080fd5b50600436106100625760003560e01c806308f673d814610067578063150b7a021461007c57806347ccca02146100a5578063715018a6146100ba5780638da5cb5b146100c2578063f2fde38b146100ca575b600080fd5b61007a610075366004610c40565b6100dd565b005b61008f61008a366004610b84565b6109ca565b60405161009c9190610d56565b60405180910390f35b6100ad6109da565b60405161009c9190610d42565b61007a6109e9565b6100ad610a72565b61007a6100d8366004610b45565b610a81565b80516004146101075760405162461bcd60e51b81526004016100fe90610e0c565b60405180910390fd5b600154815133916001600160a01b031690636352211e90849060009061013d57634e487b7160e01b600052603260045260246000fd5b60200260200101516040518263ffffffff1660e01b81526004016101619190610e96565b60206040518083038186803b15801561017957600080fd5b505afa15801561018d573d6000803e3d6000fd5b505050506040513d601f19601f820116820180604052508101906101b19190610b68565b6001600160a01b0316146101d75760405162461bcd60e51b81526004016100fe90610ddf565b60018054825133926001600160a01b0390921691636352211e91859190811061021057634e487b7160e01b600052603260045260246000fd5b60200260200101516040518263ffffffff1660e01b81526004016102349190610e96565b60206040518083038186803b15801561024c57600080fd5b505afa158015610260573d6000803e3d6000fd5b505050506040513d601f19601f820116820180604052508101906102849190610b68565b6001600160a01b0316146102aa5760405162461bcd60e51b81526004016100fe90610ddf565b600154815133916001600160a01b031690636352211e90849060029081106102e257634e487b7160e01b600052603260045260246000fd5b60200260200101516040518263ffffffff1660e01b81526004016103069190610e96565b60206040518083038186803b15801561031e57600080fd5b505afa158015610332573d6000803e3d6000fd5b505050506040513d601f19601f820116820180604052508101906103569190610b68565b6001600160a01b03161461037c5760405162461bcd60e51b81526004016100fe90610ddf565b600154815133916001600160a01b031690636352211e90849060039081106103b457634e487b7160e01b600052603260045260246000fd5b60200260200101516040518263ffffffff1660e01b81526004016103d89190610e96565b60206040518083038186803b1580156103f057600080fd5b505afa158015610404573d6000803e3d6000fd5b505050506040513d601f19601f820116820180604052508101906104289190610b68565b6001600160a01b03161461044e5760405162461bcd60e51b81526004016100fe90610ddf565b60015481516000916001600160a01b0316906386620a46908490849061048457634e487b7160e01b600052603260045260246000fd5b60200260200101516040518263ffffffff1660e01b81526004016104a89190610e96565b60606040518083038186803b1580156104c057600080fd5b505afa1580156104d4573d6000803e3d6000fd5b505050506040513d601f19601f820116820180604052508101906104f89190610ce7565b5190506008811061051b5760405162461bcd60e51b81526004016100fe90610db1565b60018054835183926001600160a01b03909216916386620a4691869190811061055457634e487b7160e01b600052603260045260246000fd5b60200260200101516040518263ffffffff1660e01b81526004016105789190610e96565b60606040518083038186803b15801561059057600080fd5b505afa1580156105a4573d6000803e3d6000fd5b505050506040513d601f19601f820116820180604052508101906105c89190610ce7565b51146105e65760405162461bcd60e51b81526004016100fe90610e6e565b600154825182916001600160a01b0316906386620a46908590600290811061061e57634e487b7160e01b600052603260045260246000fd5b60200260200101516040518263ffffffff1660e01b81526004016106429190610e96565b60606040518083038186803b15801561065a57600080fd5b505afa15801561066e573d6000803e3d6000fd5b505050506040513d601f19601f820116820180604052508101906106929190610ce7565b51146106b05760405162461bcd60e51b81526004016100fe90610e6e565b600154825182916001600160a01b0316906386620a4690859060039081106106e857634e487b7160e01b600052603260045260246000fd5b60200260200101516040518263ffffffff1660e01b815260040161070c9190610e96565b60606040518083038186803b15801561072457600080fd5b505afa158015610738573d6000803e3d6000fd5b505050506040513d601f19601f8201168201806040525081019061075c9190610ce7565b511461077a5760405162461bcd60e51b81526004016100fe90610e6e565b60015482516001600160a01b039091169063095660119084906000906107b057634e487b7160e01b600052603260045260246000fd5b60200260200101518360016107c59190610ed7565b6040518363ffffffff1660e01b81526004016107e2929190610e9f565b600060405180830381600087803b1580156107fc57600080fd5b505af1158015610810573d6000803e3d6000fd5b50506001805485516001600160a01b03909116935063095660119250859190811061084b57634e487b7160e01b600052603260045260246000fd5b602002602001015160006040518363ffffffff1660e01b8152600401610872929190610e9f565b600060405180830381600087803b15801561088c57600080fd5b505af11580156108a0573d6000803e3d6000fd5b505060015484516001600160a01b03909116925063095660119150849060029081106108dc57634e487b7160e01b600052603260045260246000fd5b602002602001015160006040518363ffffffff1660e01b8152600401610903929190610e9f565b600060405180830381600087803b15801561091d57600080fd5b505af1158015610931573d6000803e3d6000fd5b505060015484516001600160a01b039091169250630956601191508490600390811061096d57634e487b7160e01b600052603260045260246000fd5b602002602001015160006040518363ffffffff1660e01b8152600401610994929190610e9f565b600060405180830381600087803b1580156109ae57600080fd5b505af11580156109c2573d6000803e3d6000fd5b505050505050565b630a85bd0160e11b949350505050565b6001546001600160a01b031681565b6109f1610b41565b6001600160a01b0316610a02610a72565b6001600160a01b031614610a285760405162461bcd60e51b81526004016100fe90610e39565b600080546040516001600160a01b03909116907f8be0079c531659141344cd1fd0a4f28419497f9722a3daafe3b4186f6b6457e0908390a3600080546001600160a01b0319169055565b6000546001600160a01b031690565b610a89610b41565b6001600160a01b0316610a9a610a72565b6001600160a01b031614610ac05760405162461bcd60e51b81526004016100fe90610e39565b6001600160a01b038116610ae65760405162461bcd60e51b81526004016100fe90610d6b565b600080546040516001600160a01b03808516939216917f8be0079c531659141344cd1fd0a4f28419497f9722a3daafe3b4186f6b6457e091a3600080546001600160a01b0319166001600160a01b0392909216919091179055565b3390565b600060208284031215610b56578081fd5b8135610b6181610f11565b9392505050565b600060208284031215610b79578081fd5b8151610b6181610f11565b60008060008060808587031215610b99578283fd5b8435610ba481610f11565b9350602085810135610bb581610f11565b935060408601359250606086013567ffffffffffffffff80821115610bd8578384fd5b818801915088601f830112610beb578384fd5b813581811115610bfd57610bfd610efb565b610c0f601f8201601f19168501610ead565b91508082528984828501011115610c24578485fd5b8084840185840137810190920192909252939692955090935050565b60006020808385031215610c52578182fd5b823567ffffffffffffffff80821115610c69578384fd5b818501915085601f830112610c7c578384fd5b813581811115610c8e57610c8e610efb565b8381029150610c9e848301610ead565b8181528481019084860184860187018a1015610cb8578788fd5b8795505b83861015610cda578035835260019590950194918601918601610cbc565b5098975050505050505050565b600060608284031215610cf8578081fd5b6040516060810181811067ffffffffffffffff82111715610d1b57610d1b610efb565b80604052508251815260208301516020820152604083015160408201528091505092915050565b6001600160a01b0391909116815260200190565b6001600160e01b031991909116815260200190565b60208082526026908201527f4f776e61626c653a206e6577206f776e657220697320746865207a65726f206160408201526564647265737360d01b606082015260800190565b602080825260149082015273796f752061726520486967686572206265696e6760601b604082015260600190565b6020808252601390820152723cb7ba903237b713ba1037bbb7103a37b5b2b760691b604082015260600190565b6020808252601390820152724e465420616d6f756e742069732077726f6e6760681b604082015260600190565b6020808252818101527f4f776e61626c653a2063616c6c6572206973206e6f7420746865206f776e6572604082015260600190565b6020808252600e908201526d57726f6e67206e6674207479706560901b604082015260600190565b90815260200190565b918252602082015260400190565b60405181810167ffffffffffffffff81118282101715610ecf57610ecf610efb565b604052919050565b60008219821115610ef657634e487b7160e01b81526011600452602481fd5b500190565b634e487b7160e01b600052604160045260246000fd5b6001600160a01b0381168114610f2657600080fd5b5056fea26469706673582212205feb099f4c90a373e45b060b099d45725cddb3405943ee8dbed3d04fd8bd103264736f6c63430008000033",
  "immutableReferences": {},
  "source": "// SPDX-License-Identifier: MIT\n\npragma solidity 0.8.0;\n\nimport \"../oz/utils/structs/EnumerableSet.sol\";\nimport \"../oz/access/Ownable.sol\";\nimport \"../oz/token/ERC20/ERC20.sol\";\nimport \"../oz/token/ERC20/IERC20.sol\";\nimport \"../oz/token/ERC20/utils/SafeERC20.sol\";\nimport \"../oz/token/ERC721/utils/ERC721Holder.sol\";\nimport '../oz/token/ERC721/IERC721.sol';\nimport \"../oz/utils/math/SafeMath.sol\";\nimport \"./GenNFT.sol\";\n\n\ncontract Fuse is Ownable, ERC721Holder {\n    using SafeERC20 for IERC20;\n    using SafeMath for uint;\n\n    // The NFT TOKEN!\n    GenNFT public nft;\n    constructor(\n        GenNFT _nft\n    ) public {\n        nft = _nft;\n    }\n    \n    function fuseNFT(uint[] memory _nftIds) public {\n        \n        require(_nftIds.length == 4, \"NFT amount is wrong\");\n        require(nft.ownerOf(_nftIds[0]) == msg.sender, \"you don't own token\");\n        require(nft.ownerOf(_nftIds[1]) == msg.sender, \"you don't own token\");\n        require(nft.ownerOf(_nftIds[2]) == msg.sender, \"you don't own token\");\n        require(nft.ownerOf(_nftIds[3]) == msg.sender, \"you don't own token\");\n        uint nftTypeId = nft.getTypeByTokenId(_nftIds[0]).id;\n        \n        require(nftTypeId < 8, \"you are Higher being\");\n        require(nft.getTypeByTokenId(_nftIds[1]).id == nftTypeId, \"Wrong nft type\");\n        require(nft.getTypeByTokenId(_nftIds[2]).id == nftTypeId, \"Wrong nft type\");\n        require(nft.getTypeByTokenId(_nftIds[3]).id == nftTypeId, \"Wrong nft type\");\n    \n        nft.changeType(_nftIds[0], nftTypeId + 1);\n        nft.changeType(_nftIds[1], 0);\n        nft.changeType(_nftIds[2], 0);\n        nft.changeType(_nftIds[3], 0);\n    }\n}",
  "sourcePath": "/Users/alexei120991/Documents/Project/RUNNER/EVA/Test/contracts/Fuse.sol",
  "compiler": {
    "name": "solc",
    "version": "0.8.0+commit.c7dfd78e.Emscripten.clang"
  },
  "schemaVersion": "3.3.4",
  "updatedAt": "2021-07-08T12:53:22.976Z",
  "devdoc": {
    "kind": "dev",
    "methods": {
      "onERC721Received(address,address,uint256,bytes)": {
        "details": "See {IERC721Receiver-onERC721Received}. Always returns `IERC721Receiver.onERC721Received.selector`."
      },
      "owner()": {
        "details": "Returns the address of the current owner."
      },
      "renounceOwnership()": {
        "details": "Leaves the contract without owner. It will not be possible to call `onlyOwner` functions anymore. Can only be called by the current owner. NOTE: Renouncing ownership will leave the contract without an owner, thereby removing any functionality that is only available to the owner."
      },
      "transferOwnership(address)": {
        "details": "Transfers ownership of the contract to a new account (`newOwner`). Can only be called by the current owner."
      }
    },
    "version": 1
  },
  "userdoc": {
    "kind": "user",
    "methods": {},
    "version": 1
  }
}