{
  "contractName": "GenNFT",
  "abi": [
    {
      "inputs": [],
      "stateMutability": "nonpayable",
      "type": "constructor"
    },
    {
      "anonymous": false,
      "inputs": [
        {
          "indexed": true,
          "internalType": "address",
          "name": "owner",
          "type": "address"
        },
        {
          "indexed": true,
          "internalType": "address",
          "name": "approved",
          "type": "address"
        },
        {
          "indexed": true,
          "internalType": "uint256",
          "name": "tokenId",
          "type": "uint256"
        }
      ],
      "name": "Approval",
      "type": "event"
    },
    {
      "anonymous": false,
      "inputs": [
        {
          "indexed": true,
          "internalType": "address",
          "name": "owner",
          "type": "address"
        },
        {
          "indexed": true,
          "internalType": "address",
          "name": "operator",
          "type": "address"
        },
        {
          "indexed": false,
          "internalType": "bool",
          "name": "approved",
          "type": "bool"
        }
      ],
      "name": "ApprovalForAll",
      "type": "event"
    },
    {
      "anonymous": false,
      "inputs": [
        {
          "indexed": true,
          "internalType": "address",
          "name": "previousOwner",
          "type": "address"
        },
        {
          "indexed": true,
          "internalType": "address",
          "name": "newOwner",
          "type": "address"
        }
      ],
      "name": "OwnershipTransferred",
      "type": "event"
    },
    {
      "anonymous": false,
      "inputs": [
        {
          "indexed": true,
          "internalType": "address",
          "name": "from",
          "type": "address"
        },
        {
          "indexed": true,
          "internalType": "address",
          "name": "to",
          "type": "address"
        },
        {
          "indexed": true,
          "internalType": "uint256",
          "name": "tokenId",
          "type": "uint256"
        }
      ],
      "name": "Transfer",
      "type": "event"
    },
    {
      "inputs": [
        {
          "internalType": "address",
          "name": "to",
          "type": "address"
        },
        {
          "internalType": "uint256",
          "name": "tokenId",
          "type": "uint256"
        }
      ],
      "name": "approve",
      "outputs": [],
      "stateMutability": "nonpayable",
      "type": "function"
    },
    {
      "inputs": [
        {
          "internalType": "address",
          "name": "owner",
          "type": "address"
        }
      ],
      "name": "balanceOf",
      "outputs": [
        {
          "internalType": "uint256",
          "name": "",
          "type": "uint256"
        }
      ],
      "stateMutability": "view",
      "type": "function"
    },
    {
      "inputs": [
        {
          "internalType": "uint256",
          "name": "tokenId",
          "type": "uint256"
        }
      ],
      "name": "getApproved",
      "outputs": [
        {
          "internalType": "address",
          "name": "",
          "type": "address"
        }
      ],
      "stateMutability": "view",
      "type": "function"
    },
    {
      "inputs": [
        {
          "internalType": "address",
          "name": "owner",
          "type": "address"
        },
        {
          "internalType": "address",
          "name": "operator",
          "type": "address"
        }
      ],
      "name": "isApprovedForAll",
      "outputs": [
        {
          "internalType": "bool",
          "name": "",
          "type": "bool"
        }
      ],
      "stateMutability": "view",
      "type": "function"
    },
    {
      "inputs": [],
      "name": "name",
      "outputs": [
        {
          "internalType": "string",
          "name": "",
          "type": "string"
        }
      ],
      "stateMutability": "view",
      "type": "function"
    },
    {
      "inputs": [],
      "name": "owner",
      "outputs": [
        {
          "internalType": "address",
          "name": "",
          "type": "address"
        }
      ],
      "stateMutability": "view",
      "type": "function"
    },
    {
      "inputs": [
        {
          "internalType": "uint256",
          "name": "tokenId",
          "type": "uint256"
        }
      ],
      "name": "ownerOf",
      "outputs": [
        {
          "internalType": "address",
          "name": "",
          "type": "address"
        }
      ],
      "stateMutability": "view",
      "type": "function"
    },
    {
      "inputs": [],
      "name": "renounceOwnership",
      "outputs": [],
      "stateMutability": "nonpayable",
      "type": "function"
    },
    {
      "inputs": [
        {
          "internalType": "address",
          "name": "from",
          "type": "address"
        },
        {
          "internalType": "address",
          "name": "to",
          "type": "address"
        },
        {
          "internalType": "uint256",
          "name": "tokenId",
          "type": "uint256"
        }
      ],
      "name": "safeTransferFrom",
      "outputs": [],
      "stateMutability": "nonpayable",
      "type": "function"
    },
    {
      "inputs": [
        {
          "internalType": "address",
          "name": "from",
          "type": "address"
        },
        {
          "internalType": "address",
          "name": "to",
          "type": "address"
        },
        {
          "internalType": "uint256",
          "name": "tokenId",
          "type": "uint256"
        },
        {
          "internalType": "bytes",
          "name": "_data",
          "type": "bytes"
        }
      ],
      "name": "safeTransferFrom",
      "outputs": [],
      "stateMutability": "nonpayable",
      "type": "function"
    },
    {
      "inputs": [
        {
          "internalType": "address",
          "name": "operator",
          "type": "address"
        },
        {
          "internalType": "bool",
          "name": "approved",
          "type": "bool"
        }
      ],
      "name": "setApprovalForAll",
      "outputs": [],
      "stateMutability": "nonpayable",
      "type": "function"
    },
    {
      "inputs": [
        {
          "internalType": "bytes4",
          "name": "interfaceId",
          "type": "bytes4"
        }
      ],
      "name": "supportsInterface",
      "outputs": [
        {
          "internalType": "bool",
          "name": "",
          "type": "bool"
        }
      ],
      "stateMutability": "view",
      "type": "function"
    },
    {
      "inputs": [],
      "name": "symbol",
      "outputs": [
        {
          "internalType": "string",
          "name": "",
          "type": "string"
        }
      ],
      "stateMutability": "view",
      "type": "function"
    },
    {
      "inputs": [
        {
          "internalType": "uint256",
          "name": "index",
          "type": "uint256"
        }
      ],
      "name": "tokenByIndex",
      "outputs": [
        {
          "internalType": "uint256",
          "name": "",
          "type": "uint256"
        }
      ],
      "stateMutability": "view",
      "type": "function"
    },
    {
      "inputs": [
        {
          "internalType": "address",
          "name": "owner",
          "type": "address"
        },
        {
          "internalType": "uint256",
          "name": "index",
          "type": "uint256"
        }
      ],
      "name": "tokenOfOwnerByIndex",
      "outputs": [
        {
          "internalType": "uint256",
          "name": "",
          "type": "uint256"
        }
      ],
      "stateMutability": "view",
      "type": "function"
    },
    {
      "inputs": [],
      "name": "totalSupply",
      "outputs": [
        {
          "internalType": "uint256",
          "name": "",
          "type": "uint256"
        }
      ],
      "stateMutability": "view",
      "type": "function"
    },
    {
      "inputs": [
        {
          "internalType": "address",
          "name": "from",
          "type": "address"
        },
        {
          "internalType": "address",
          "name": "to",
          "type": "address"
        },
        {
          "internalType": "uint256",
          "name": "tokenId",
          "type": "uint256"
        }
      ],
      "name": "transferFrom",
      "outputs": [],
      "stateMutability": "nonpayable",
      "type": "function"
    },
    {
      "inputs": [
        {
          "internalType": "address",
          "name": "newOwner",
          "type": "address"
        }
      ],
      "name": "transferOwnership",
      "outputs": [],
      "stateMutability": "nonpayable",
      "type": "function"
    },
    {
      "inputs": [
        {
          "internalType": "address",
          "name": "user",
          "type": "address"
        }
      ],
      "name": "addTrusted",
      "outputs": [],
      "stateMutability": "nonpayable",
      "type": "function"
    },
    {
      "inputs": [
        {
          "internalType": "address",
          "name": "user",
          "type": "address"
        }
      ],
      "name": "removeTrusted",
      "outputs": [],
      "stateMutability": "nonpayable",
      "type": "function"
    },
    {
      "inputs": [
        {
          "internalType": "address",
          "name": "holder",
          "type": "address"
        },
        {
          "internalType": "uint256",
          "name": "typeId",
          "type": "uint256"
        }
      ],
      "name": "createToken",
      "outputs": [
        {
          "internalType": "uint256",
          "name": "tokenId",
          "type": "uint256"
        }
      ],
      "stateMutability": "nonpayable",
      "type": "function"
    },
    {
      "inputs": [
        {
          "internalType": "address",
          "name": "holder",
          "type": "address"
        },
        {
          "internalType": "uint256",
          "name": "rarity",
          "type": "uint256"
        },
        {
          "internalType": "uint256",
          "name": "seed",
          "type": "uint256"
        }
      ],
      "name": "createRandomNFT",
      "outputs": [
        {
          "internalType": "uint256",
          "name": "",
          "type": "uint256"
        }
      ],
      "stateMutability": "nonpayable",
      "type": "function"
    },
    {
      "inputs": [
        {
          "internalType": "uint256",
          "name": "tokenId",
          "type": "uint256"
        },
        {
          "internalType": "uint256",
          "name": "toTypeId",
          "type": "uint256"
        }
      ],
      "name": "changeType",
      "outputs": [],
      "stateMutability": "nonpayable",
      "type": "function"
    },
    {
      "inputs": [
        {
          "internalType": "uint256",
          "name": "id",
          "type": "uint256"
        },
        {
          "internalType": "uint256",
          "name": "bonus",
          "type": "uint256"
        },
        {
          "internalType": "uint256",
          "name": "rarity",
          "type": "uint256"
        }
      ],
      "name": "addType",
      "outputs": [],
      "stateMutability": "nonpayable",
      "type": "function"
    },
    {
      "inputs": [
        {
          "internalType": "uint256",
          "name": "id",
          "type": "uint256"
        }
      ],
      "name": "removeType",
      "outputs": [],
      "stateMutability": "nonpayable",
      "type": "function"
    },
    {
      "inputs": [
        {
          "internalType": "uint256",
          "name": "id",
          "type": "uint256"
        },
        {
          "internalType": "uint256",
          "name": "bonus",
          "type": "uint256"
        },
        {
          "internalType": "uint256",
          "name": "rarity",
          "type": "uint256"
        }
      ],
      "name": "replaceType",
      "outputs": [],
      "stateMutability": "nonpayable",
      "type": "function"
    },
    {
      "inputs": [
        {
          "internalType": "uint256",
          "name": "id",
          "type": "uint256"
        }
      ],
      "name": "getTypeById",
      "outputs": [
        {
          "components": [
            {
              "internalType": "uint256",
              "name": "id",
              "type": "uint256"
            },
            {
              "internalType": "uint256",
              "name": "bonus",
              "type": "uint256"
            },
            {
              "internalType": "uint256",
              "name": "rarity",
              "type": "uint256"
            }
          ],
          "internalType": "struct GenNFT.Type",
          "name": "",
          "type": "tuple"
        }
      ],
      "stateMutability": "view",
      "type": "function"
    },
    {
      "inputs": [
        {
          "internalType": "uint256",
          "name": "id",
          "type": "uint256"
        }
      ],
      "name": "getTypeByTokenId",
      "outputs": [
        {
          "components": [
            {
              "internalType": "uint256",
              "name": "id",
              "type": "uint256"
            },
            {
              "internalType": "uint256",
              "name": "bonus",
              "type": "uint256"
            },
            {
              "internalType": "uint256",
              "name": "rarity",
              "type": "uint256"
            }
          ],
          "internalType": "struct GenNFT.Type",
          "name": "",
          "type": "tuple"
        }
      ],
      "stateMutability": "view",
      "type": "function"
    },
    {
      "inputs": [],
      "name": "getTypeCount",
      "outputs": [
        {
          "internalType": "uint256",
          "name": "",
          "type": "uint256"
        }
      ],
      "stateMutability": "view",
      "type": "function"
    },
    {
      "inputs": [
        {
          "internalType": "uint256",
          "name": "index",
          "type": "uint256"
        }
      ],
      "name": "getTypeIdAtIndex",
      "outputs": [
        {
          "internalType": "uint256",
          "name": "",
          "type": "uint256"
        }
      ],
      "stateMutability": "view",
      "type": "function"
    },
    {
      "inputs": [
        {
          "internalType": "uint256",
          "name": "index",
          "type": "uint256"
        }
      ],
      "name": "getTypeAtIndex",
      "outputs": [
        {
          "components": [
            {
              "internalType": "uint256",
              "name": "id",
              "type": "uint256"
            },
            {
              "internalType": "uint256",
              "name": "bonus",
              "type": "uint256"
            },
            {
              "internalType": "uint256",
              "name": "rarity",
              "type": "uint256"
            }
          ],
          "internalType": "struct GenNFT.Type",
          "name": "tokenType",
          "type": "tuple"
        }
      ],
      "stateMutability": "view",
      "type": "function"
    },
    {
      "inputs": [
        {
          "internalType": "uint256",
          "name": "tokenId",
          "type": "uint256"
        }
      ],
      "name": "tokenURI",
      "outputs": [
        {
          "internalType": "string",
          "name": "",
          "type": "string"
        }
      ],
      "stateMutability": "view",
      "type": "function"
    }
  ],
  "bytecode": "0x608060405260006011553480156200001657600080fd5b50604080518082018252600781526611d95b8813919560ca1b60208083019182528351808501909452600684526511d95b93919560d21b9084015281519192916200006491600091620000e7565b5080516200007a906001906020840190620000e7565b50505060006200008f620000e360201b60201c565b600a80546001600160a01b0319166001600160a01b038316908117909155604051919250906000907f8be0079c531659141344cd1fd0a4f28419497f9722a3daafe3b4186f6b6457e0908290a350620001ca565b3390565b828054620000f5906200018d565b90600052602060002090601f01602090048101928262000119576000855562000164565b82601f106200013457805160ff191683800117855562000164565b8280016001018555821562000164579182015b828111156200016457825182559160200191906001019062000147565b506200017292915062000176565b5090565b5b8082111562000172576000815560010162000177565b600281046001821680620001a257607f821691505b60208210811415620001c457634e487b7160e01b600052602260045260246000fd5b50919050565b61267480620001da6000396000f3fe608060405234801561001057600080fd5b50600436106101f05760003560e01c80637d02b1a31161010f578063b8645a49116100a2578063d55e62a011610071578063d55e62a014610413578063e985e9c514610426578063eede7b4414610439578063f2fde38b1461044c576101f0565b8063b8645a49146103c7578063b88d4fde146103da578063c87b56dd146103ed578063d4d0d6e614610400576101f0565b806395d89b41116100de57806395d89b41146103865780639cfeb6d21461038e578063a22cb465146103a1578063b6aa9916146103b4576101f0565b80637d02b1a31461034357806386620a461461034b5780638da5cb5b1461036b5780638de8f84814610373576101f0565b806342842e0e116101875780636352211e116101565780636352211e146103025780636a10d4d61461031557806370a0823114610328578063715018a61461033b576101f0565b806342842e0e146102b65780634ee3ae75146102c95780634f6ccce7146102dc578063590315a6146102ef576101f0565b8063095ea7b3116101c3578063095ea7b31461026857806318160ddd1461027b57806323b872dd146102905780632f745c59146102a3576101f0565b806301ffc9a7146101f557806306fdde031461021e578063081812fc146102335780630956601114610253575b600080fd5b610208610203366004611d0f565b61045f565b6040516102159190611ec5565b60405180910390f35b61022661048c565b6040516102159190611ed0565b610246610241366004611d47565b61051e565b6040516102159190611e7e565b610266610261366004611d5f565b61056a565b005b610266610276366004611cb4565b6105ce565b610283610666565b6040516102159190612501565b61026661029e366004611b73565b61066c565b6102836102b1366004611cb4565b6106a4565b6102666102c4366004611b73565b6106f9565b6102666102d7366004611d80565b610714565b6102836102ea366004611d47565b610767565b6102666102fd366004611d47565b6107c2565b610246610310366004611d47565b610860565b610283610323366004611cb4565b610895565b610283610336366004611b27565b610918565b61026661095c565b6102836109e5565b61035e610359366004611d47565b6109f6565b60405161021591906124e0565b610246610a41565b61035e610381366004611d47565b610a50565b610226610aa5565b61026661039c366004611d80565b610ab4565b6102666103af366004611c7a565b610b7b565b61035e6103c2366004611d47565b610c49565b6102836103d5366004611cdd565b610c8a565b6102666103e8366004611bae565b610d46565b6102266103fb366004611d47565b610d7f565b61026661040e366004611b27565b610dea565b610266610421366004611b27565b610e4d565b610208610434366004611b41565b610ead565b610283610447366004611d47565b610edb565b61026661045a366004611b27565b610ee8565b60006001600160e01b0319821663780e9d6360e01b1480610484575061048482610fa9565b90505b919050565b60606000805461049b90612579565b80601f01602080910402602001604051908101604052809291908181526020018280546104c790612579565b80156105145780601f106104e957610100808354040283529160200191610514565b820191906000526020600020905b8154815290600101906020018083116104f757829003601f168201915b5050505050905090565b600061052982610fe9565b61054e5760405162461bcd60e51b815260040161054590612250565b60405180910390fd5b506000908152600460205260409020546001600160a01b031690565b336000908152600b602052604090205460ff16806105a0575061058b610a41565b6001600160a01b0316336001600160a01b0316145b6105bc5760405162461bcd60e51b81526004016105459061203f565b60009182526012602052604090912055565b60006105d982610860565b9050806001600160a01b0316836001600160a01b0316141561060d5760405162461bcd60e51b815260040161054590612394565b806001600160a01b031661061f611006565b6001600160a01b0316148061063b575061063b81610434611006565b6106575760405162461bcd60e51b81526004016105459061212b565b610661838361100a565b505050565b60085490565b61067d610677611006565b82611078565b6106995760405162461bcd60e51b8152600401610545906123d5565b6106618383836110fd565b60006106af83610918565b82106106cd5760405162461bcd60e51b815260040161054590611f25565b506001600160a01b03821660009081526006602090815260408083208484529091529020545b92915050565b61066183838360405180602001604052806000815250610d46565b61071c611006565b6001600160a01b031661072d610a41565b6001600160a01b0316146107535760405162461bcd60e51b81526004016105459061229c565b61075c836107c2565b610661838383610ab4565b6000610771610666565b821061078f5760405162461bcd60e51b815260040161054590612426565b600882815481106107b057634e487b7160e01b600052603260045260246000fd5b90600052602060002001549050919050565b6107ca611006565b6001600160a01b03166107db610a41565b6001600160a01b0316146108015760405162461bcd60e51b81526004016105459061229c565b61080c600c8261122a565b6108285760405162461bcd60e51b815260040161054590612472565b610833600c8261123d565b506000818152600e60209081526040808320600201548352600f909152902061085c908261123d565b5050565b6000818152600260205260408120546001600160a01b0316806104845760405162461bcd60e51b8152600401610545906121d2565b336000908152600b602052604081205460ff16806108cb57506108b6610a41565b6001600160a01b0316336001600160a01b0316145b6108e75760405162461bcd60e51b81526004016105459061203f565b6011600081546108f6906125b4565b9182905550600081815260126020526040902083905590506106f38382611249565b60006001600160a01b0382166109405760405162461bcd60e51b815260040161054590612188565b506001600160a01b031660009081526003602052604090205490565b610964611006565b6001600160a01b0316610975610a41565b6001600160a01b03161461099b5760405162461bcd60e51b81526004016105459061229c565b600a546040516000916001600160a01b0316907f8be0079c531659141344cd1fd0a4f28419497f9722a3daafe3b4186f6b6457e0908390a3600a80546001600160a01b0319169055565b60006109f1600c611328565b905090565b6109fe611aef565b506000908152601260209081526040808320548352600e825291829020825160608101845281548152600182015492810192909252600201549181019190915290565b600a546001600160a01b031690565b610a58611aef565b600e6000610a67600c85611333565b815260200190815260200160002060405180606001604052908160008201548152602001600182015481526020016002820154815250509050919050565b60606001805461049b90612579565b610abc611006565b6001600160a01b0316610acd610a41565b6001600160a01b031614610af35760405162461bcd60e51b81526004016105459061229c565b610afe600c8461122a565b15610b1b5760405162461bcd60e51b815260040161054590612369565b610b26600c8461133f565b506040805160608101825284815260208082018581528284018581526000888152600e8452858120945185559151600185015551600290930192909255838252600f905220610b75908461133f565b50505050565b610b83611006565b6001600160a01b0316826001600160a01b03161415610bb45760405162461bcd60e51b8152600401610545906120a8565b8060056000610bc1611006565b6001600160a01b03908116825260208083019390935260409182016000908120918716808252919093529120805460ff191692151592909217909155610c05611006565b6001600160a01b03167f17307eab39ab6107e8899845ad3d59bd9653f200f220920489ca2b5937696c3183604051610c3d9190611ec5565b60405180910390a35050565b610c51611aef565b506000908152600e6020908152604091829020825160608101845281548152600182015492810192909252600201549181019190915290565b336000908152600b602052604081205460ff1680610cc05750610cab610a41565b6001600160a01b0316336001600160a01b0316145b610cdc5760405162461bcd60e51b81526004016105459061203f565b6000838152600f6020526040812090610cf482611328565b11610d115760405162461bcd60e51b81526004016105459061249d565b6000610d30610d1f83611328565b610d2990866125cf565b8390611333565b9050610d3c8682610895565b9695505050505050565b610d57610d51611006565b83611078565b610d735760405162461bcd60e51b8152600401610545906123d5565b610b758484848461134b565b60606000610d8c8361137e565b90506000610d99846109f6565b905081610da585611400565b610db28360200151611400565b610dbf8460400151611400565b604051602001610dd29493929190611e06565b60405160208183030381529060405292505050919050565b610df2611006565b6001600160a01b0316610e03610a41565b6001600160a01b031614610e295760405162461bcd60e51b81526004016105459061229c565b6001600160a01b03166000908152600b60205260409020805460ff19166001179055565b610e55611006565b6001600160a01b0316610e66610a41565b6001600160a01b031614610e8c5760405162461bcd60e51b81526004016105459061229c565b6001600160a01b03166000908152600b60205260409020805460ff19169055565b6001600160a01b03918216600090815260056020908152604080832093909416825291909152205460ff1690565b6000610484600c83611333565b610ef0611006565b6001600160a01b0316610f01610a41565b6001600160a01b031614610f275760405162461bcd60e51b81526004016105459061229c565b6001600160a01b038116610f4d5760405162461bcd60e51b815260040161054590611fc2565b600a546040516001600160a01b038084169216907f8be0079c531659141344cd1fd0a4f28419497f9722a3daafe3b4186f6b6457e090600090a3600a80546001600160a01b0319166001600160a01b0392909216919091179055565b60006001600160e01b031982166380ac58cd60e01b1480610fda57506001600160e01b03198216635b5e139f60e01b145b8061048457506104848261151b565b6000908152600260205260409020546001600160a01b0316151590565b3390565b600081815260046020526040902080546001600160a01b0319166001600160a01b038416908117909155819061103f82610860565b6001600160a01b03167f8c5be1e5ebec7d5bd14f71427d1e84f3dd0314c0f7b2291e5b200ac8c7c3b92560405160405180910390a45050565b600061108382610fe9565b61109f5760405162461bcd60e51b8152600401610545906120df565b60006110aa83610860565b9050806001600160a01b0316846001600160a01b031614806110e55750836001600160a01b03166110da8461051e565b6001600160a01b0316145b806110f557506110f58185610ead565b949350505050565b826001600160a01b031661111082610860565b6001600160a01b0316146111365760405162461bcd60e51b8152600401610545906122d1565b6001600160a01b03821661115c5760405162461bcd60e51b815260040161054590612064565b611167838383611534565b61117260008261100a565b6001600160a01b038316600090815260036020526040812080546001929061119b908490612536565b90915550506001600160a01b03821660009081526003602052604081208054600192906111c990849061250a565b909155505060008181526002602052604080822080546001600160a01b0319166001600160a01b0386811691821790925591518493918716917fddf252ad1be2c89b69c2b068fc378daa952ba7f163c4a11628f55a4df523b3ef91a4505050565b600061123683836115bd565b9392505050565b600061123683836115d5565b6001600160a01b03821661126f5760405162461bcd60e51b81526004016105459061221b565b61127881610fe9565b156112955760405162461bcd60e51b815260040161054590612008565b6112a160008383611534565b6001600160a01b03821660009081526003602052604081208054600192906112ca90849061250a565b909155505060008181526002602052604080822080546001600160a01b0319166001600160a01b03861690811790915590518392907fddf252ad1be2c89b69c2b068fc378daa952ba7f163c4a11628f55a4df523b3ef908290a45050565b6000610484826116f2565b600061123683836116f6565b6000611236838361174f565b6113568484846110fd565b61136284848484611799565b610b755760405162461bcd60e51b815260040161054590611f70565b606061138982610fe9565b6113a55760405162461bcd60e51b81526004016105459061231a565b60006113af6118b4565b905060008151116113cf5760405180602001604052806000815250611236565b806113d984611400565b6040516020016113ea929190611dd7565b6040516020818303038152906040529392505050565b60608161142557506040805180820190915260018152600360fc1b6020820152610487565b8160005b811561144f5780611439816125b4565b91506114489050600a83612522565b9150611429565b60008167ffffffffffffffff81111561147857634e487b7160e01b600052604160045260246000fd5b6040519080825280601f01601f1916602001820160405280156114a2576020820181803683370190505b5090505b84156110f5576114b7600183612536565b91506114c4600a866125cf565b6114cf90603061250a565b60f81b8183815181106114f257634e487b7160e01b600052603260045260246000fd5b60200101906001600160f81b031916908160001a905350611514600a86612522565b94506114a6565b6001600160e01b031981166301ffc9a760e01b14919050565b61153f838383610661565b6001600160a01b03831661155b57611556816118eb565b61157e565b816001600160a01b0316836001600160a01b03161461157e5761157e838261192f565b6001600160a01b03821661159a57611595816119cc565b610661565b826001600160a01b0316826001600160a01b031614610661576106618282611aa5565b60009081526001919091016020526040902054151590565b600081815260018301602052604081205480156116e85760006115f9600183612536565b855490915060009061160d90600190612536565b9050600086600001828154811061163457634e487b7160e01b600052603260045260246000fd5b906000526020600020015490508087600001848154811061166557634e487b7160e01b600052603260045260246000fd5b60009182526020909120015561167c83600161250a565b600082815260018901602052604090205586548790806116ac57634e487b7160e01b600052603160045260246000fd5b600190038181906000526020600020016000905590558660010160008781526020019081526020016000206000905560019450505050506106f3565b60009150506106f3565b5490565b815460009082106117195760405162461bcd60e51b815260040161054590611ee3565b82600001828154811061173c57634e487b7160e01b600052603260045260246000fd5b9060005260206000200154905092915050565b600061175b83836115bd565b611791575081546001818101845560008481526020808220909301849055845484825282860190935260409020919091556106f3565b5060006106f3565b60006117ad846001600160a01b0316611ae9565b156118a957836001600160a01b031663150b7a026117c9611006565b8786866040518563ffffffff1660e01b81526004016117eb9493929190611e92565b602060405180830381600087803b15801561180557600080fd5b505af1925050508015611835575060408051601f3d908101601f1916820190925261183291810190611d2b565b60015b61188f573d808015611863576040519150601f19603f3d011682016040523d82523d6000602084013e611868565b606091505b5080516118875760405162461bcd60e51b815260040161054590611f70565b805181602001fd5b6001600160e01b031916630a85bd0160e11b1490506110f5565b506001949350505050565b60408051808201909152601a81527f68747470733a2f2f6e66742e62736372756e6e65722e636f6d2f000000000000602082015290565b600880546000838152600960205260408120829055600182018355919091527ff3f7a9fe364faab93b216da50a3214154f22a0a2b415b23a84c8169e8b636ee30155565b6000600161193c84610918565b6119469190612536565b600083815260076020526040902054909150808214611999576001600160a01b03841660009081526006602090815260408083208584528252808320548484528184208190558352600790915290208190555b5060009182526007602090815260408084208490556001600160a01b039094168352600681528383209183525290812055565b6008546000906119de90600190612536565b60008381526009602052604081205460088054939450909284908110611a1457634e487b7160e01b600052603260045260246000fd5b906000526020600020015490508060088381548110611a4357634e487b7160e01b600052603260045260246000fd5b6000918252602080832090910192909255828152600990915260408082208490558582528120556008805480611a8957634e487b7160e01b600052603160045260246000fd5b6001900381819060005260206000200160009055905550505050565b6000611ab083610918565b6001600160a01b039093166000908152600660209081526040808320868452825280832085905593825260079052919091209190915550565b3b151590565b60405180606001604052806000815260200160008152602001600081525090565b80356001600160a01b038116811461048757600080fd5b600060208284031215611b38578081fd5b61123682611b10565b60008060408385031215611b53578081fd5b611b5c83611b10565b9150611b6a60208401611b10565b90509250929050565b600080600060608486031215611b87578081fd5b611b9084611b10565b9250611b9e60208501611b10565b9150604084013590509250925092565b60008060008060808587031215611bc3578081fd5b611bcc85611b10565b93506020611bdb818701611b10565b935060408601359250606086013567ffffffffffffffff80821115611bfe578384fd5b818801915088601f830112611c11578384fd5b813581811115611c2357611c2361260f565b604051601f8201601f1916810185018381118282101715611c4657611c4661260f565b60405281815283820185018b1015611c5c578586fd5b81858501868301379081019093019390935250939692955090935050565b60008060408385031215611c8c578182fd5b611c9583611b10565b915060208301358015158114611ca9578182fd5b809150509250929050565b60008060408385031215611cc6578182fd5b611ccf83611b10565b946020939093013593505050565b600080600060608486031215611cf1578283fd5b611cfa84611b10565b95602085013595506040909401359392505050565b600060208284031215611d20578081fd5b813561123681612625565b600060208284031215611d3c578081fd5b815161123681612625565b600060208284031215611d58578081fd5b5035919050565b60008060408385031215611d71578182fd5b50508035926020909101359150565b600080600060608486031215611d94578283fd5b505081359360208301359350604090920135919050565b60008151808452611dc381602086016020860161254d565b601f01601f19169290920160200192915050565b60008351611de981846020880161254d565b835190830190611dfd81836020880161254d565b01949350505050565b60008551611e18818460208a0161254d565b8083019050602f60f81b8082528651611e38816001850160208b0161254d565b600192019182018190528551611e55816002850160208a0161254d565b60029201918201528351611e7081600384016020880161254d565b016003019695505050505050565b6001600160a01b0391909116815260200190565b6001600160a01b0385811682528416602082015260408101839052608060608201819052600090610d3c90830184611dab565b901515815260200190565b6000602082526112366020830184611dab565b60208082526022908201527f456e756d657261626c655365743a20696e646578206f7574206f6620626f756e604082015261647360f01b606082015260800190565b6020808252602b908201527f455243373231456e756d657261626c653a206f776e657220696e646578206f7560408201526a74206f6620626f756e647360a81b606082015260800190565b60208082526032908201527f4552433732313a207472616e7366657220746f206e6f6e20455243373231526560408201527131b2b4bb32b91034b6b83632b6b2b73a32b960711b606082015260800190565b60208082526026908201527f4f776e61626c653a206e6577206f776e657220697320746865207a65726f206160408201526564647265737360d01b606082015260800190565b6020808252601c908201527f4552433732313a20746f6b656e20616c7265616479206d696e74656400000000604082015260600190565b6020808252600b908201526a1b9bdd081d1c9d5cdd195960aa1b604082015260600190565b60208082526024908201527f4552433732313a207472616e7366657220746f20746865207a65726f206164646040820152637265737360e01b606082015260800190565b60208082526019908201527f4552433732313a20617070726f766520746f2063616c6c657200000000000000604082015260600190565b6020808252602c908201527f4552433732313a206f70657261746f7220717565727920666f72206e6f6e657860408201526b34b9ba32b73a103a37b5b2b760a11b606082015260800190565b60208082526038908201527f4552433732313a20617070726f76652063616c6c6572206973206e6f74206f7760408201527f6e6572206e6f7220617070726f76656420666f7220616c6c0000000000000000606082015260800190565b6020808252602a908201527f4552433732313a2062616c616e636520717565727920666f7220746865207a65604082015269726f206164647265737360b01b606082015260800190565b60208082526029908201527f4552433732313a206f776e657220717565727920666f72206e6f6e657869737460408201526832b73a103a37b5b2b760b91b606082015260800190565b6020808252818101527f4552433732313a206d696e7420746f20746865207a65726f2061646472657373604082015260600190565b6020808252602c908201527f4552433732313a20617070726f76656420717565727920666f72206e6f6e657860408201526b34b9ba32b73a103a37b5b2b760a11b606082015260800190565b6020808252818101527f4f776e61626c653a2063616c6c6572206973206e6f7420746865206f776e6572604082015260600190565b60208082526029908201527f4552433732313a207472616e73666572206f6620746f6b656e2074686174206960408201526839903737ba1037bbb760b91b606082015260800190565b6020808252602f908201527f4552433732314d657461646174613a2055524920717565727920666f72206e6f60408201526e3732bc34b9ba32b73a103a37b5b2b760891b606082015260800190565b602080825260119082015270696420616c72656164792065786973747360781b604082015260600190565b60208082526021908201527f4552433732313a20617070726f76616c20746f2063757272656e74206f776e656040820152603960f91b606082015260800190565b60208082526031908201527f4552433732313a207472616e736665722063616c6c6572206973206e6f74206f6040820152701ddb995c881b9bdc88185c1c1c9bdd9959607a1b606082015260800190565b6020808252602c908201527f455243373231456e756d657261626c653a20676c6f62616c20696e646578206f60408201526b7574206f6620626f756e647360a01b606082015260800190565b6020808252601190820152701a5908191bd95cc81b9bdd08195e1a5cdd607a1b604082015260600190565b60208082526023908201527f746865726520617265206e6f207479706573207769746820746861742072617260408201526269747960e81b606082015260800190565b81518152602080830151908201526040918201519181019190915260600190565b90815260200190565b6000821982111561251d5761251d6125e3565b500190565b600082612531576125316125f9565b500490565b600082821015612548576125486125e3565b500390565b60005b83811015612568578181015183820152602001612550565b83811115610b755750506000910152565b60028104600182168061258d57607f821691505b602082108114156125ae57634e487b7160e01b600052602260045260246000fd5b50919050565b60006000198214156125c8576125c86125e3565b5060010190565b6000826125de576125de6125f9565b500690565b634e487b7160e01b600052601160045260246000fd5b634e487b7160e01b600052601260045260246000fd5b634e487b7160e01b600052604160045260246000fd5b6001600160e01b03198116811461263b57600080fd5b5056fea2646970667358221220625396af3de1d0801ba53181d1511d79521bee62e06472d78d9da92a2567758064736f6c63430008000033",
  "immutableReferences": {},
  "source": "// SPDX-License-Identifier: MIT\npragma solidity >=0.6.12;\npragma experimental ABIEncoderV2;\n\nimport \"../oz/utils/structs/EnumerableSet.sol\";\nimport \"../oz/access/Ownable.sol\";\nimport \"../oz/token/ERC721/extensions/ERC721Enumerable.sol\";\n\ncontract GenNFT is ERC721Enumerable, Ownable  {\n    \n    using EnumerableSet for EnumerableSet.UintSet;\n    using Strings for uint256;\n    \n       //Trusted\n    mapping(address=>bool) private _isTrusted;\n    modifier onlyTrusted {\n        require(_isTrusted[msg.sender] || msg.sender == owner(), \"not trusted\");\n        _;\n    }\n    \n    function addTrusted(address user) public onlyOwner {\n        _isTrusted[user] = true;\n    }\n    \n    function removeTrusted(address user) public onlyOwner {\n        _isTrusted[user] = false;\n    }\n    \n    struct Type {\n        uint id;\n        uint bonus;\n        uint rarity;\n    }\n    \n    constructor() ERC721(\"Gen NFT\",\"GenNFT\") {} \n    \n    // Token.Type data\n    EnumerableSet.UintSet typeIds;\n    \n    mapping (uint=>Type) typesById;\n    mapping (uint=>EnumerableSet.UintSet) private typeIdsByRarity;\n    mapping (uint=>uint) private mintIndexByTokenId;\n    \n    uint nextTokenId = 0;\n    mapping (uint=>uint) private typeIdByTokenId;\n    \n    function createToken(address holder, uint typeId) public onlyTrusted returns (uint tokenId) {\n        tokenId = ++nextTokenId;\n        typeIdByTokenId[tokenId] = typeId;\n        _mint(holder, tokenId);\n    }\n    \n    function createRandomNFT(address holder, uint rarity, uint seed) public onlyTrusted returns (uint) {\n        EnumerableSet.UintSet storage filter = typeIdsByRarity[rarity];\n        require(filter.length() > 0, \"there are no types with that rarity\");\n        uint typeId = filter.at(seed % filter.length());\n        return createToken(holder, typeId);\n    }\n    \n    function changeType(uint tokenId, uint toTypeId) public onlyTrusted {\n        typeIdByTokenId[tokenId] = toTypeId;\n    }\n    \n    function addType(uint id, uint bonus, uint rarity) public onlyOwner {\n        require(!typeIds.contains(id), \"id already exists\");\n        typeIds.add(id);\n        typesById[id] = Type(id, bonus, rarity);\n        typeIdsByRarity[rarity].add(id);\n    }\n    \n    function removeType(uint id) public onlyOwner {\n        require(typeIds.contains(id), \"id does not exist\");\n        typeIds.remove(id);\n        typeIdsByRarity[typesById[id].rarity].remove(id);\n    }\n    \n    function replaceType(uint id, uint bonus, uint rarity) public onlyOwner {\n        removeType(id);\n        addType(id, bonus, rarity);\n    }\n    \n    function getTypeById(uint id) public view returns (Type memory) { return typesById[id]; }\n    \n    function getTypeByTokenId(uint id) public view returns (Type memory) { return typesById[typeIdByTokenId[id]]; }\n    \n    function getTypeCount() public view returns (uint) {\n        return typeIds.length();\n    }\n    \n    function getTypeIdAtIndex(uint index) public view returns (uint) {\n        return typeIds.at(index);\n    }\n    \n    function getTypeAtIndex(uint index) public view returns (Type memory tokenType) {\n        tokenType = typesById[typeIds.at(index)];\n    }\n    \n    function _baseURI() internal view virtual override returns (string memory) {\n        return \"https://nft.bscrunner.com/\";\n    }\n    \n    function tokenURI(uint256 tokenId) public view virtual override returns (string memory) {\n        string memory baseURI = ERC721.tokenURI(tokenId);\n        Type memory tokenType = getTypeByTokenId(tokenId);\n        return string(abi.encodePacked(\n            baseURI, \"/\",\n            tokenId.toString(), \"/\",\n            tokenType.bonus.toString(), \"/\",\n            tokenType.rarity.toString()));\n    }\n}",
  "sourcePath": "/Users/alexei120991/Documents/Project/RUNNER/EVA/Test/contracts/GenNFT.sol",
  "compiler": {
    "name": "solc",
    "version": "0.8.0+commit.c7dfd78e.Emscripten.clang"
  },
  "schemaVersion": "3.3.4",
  "updatedAt": "2021-07-08T12:53:22.983Z",
  "devdoc": {
    "kind": "dev",
    "methods": {
      "approve(address,uint256)": {
        "details": "See {IERC721-approve}."
      },
      "balanceOf(address)": {
        "details": "See {IERC721-balanceOf}."
      },
      "getApproved(uint256)": {
        "details": "See {IERC721-getApproved}."
      },
      "isApprovedForAll(address,address)": {
        "details": "See {IERC721-isApprovedForAll}."
      },
      "name()": {
        "details": "See {IERC721Metadata-name}."
      },
      "owner()": {
        "details": "Returns the address of the current owner."
      },
      "ownerOf(uint256)": {
        "details": "See {IERC721-ownerOf}."
      },
      "renounceOwnership()": {
        "details": "Leaves the contract without owner. It will not be possible to call `onlyOwner` functions anymore. Can only be called by the current owner. NOTE: Renouncing ownership will leave the contract without an owner, thereby removing any functionality that is only available to the owner."
      },
      "safeTransferFrom(address,address,uint256)": {
        "details": "See {IERC721-safeTransferFrom}."
      },
      "safeTransferFrom(address,address,uint256,bytes)": {
        "details": "See {IERC721-safeTransferFrom}."
      },
      "setApprovalForAll(address,bool)": {
        "details": "See {IERC721-setApprovalForAll}."
      },
      "supportsInterface(bytes4)": {
        "details": "See {IERC165-supportsInterface}."
      },
      "symbol()": {
        "details": "See {IERC721Metadata-symbol}."
      },
      "tokenByIndex(uint256)": {
        "details": "See {IERC721Enumerable-tokenByIndex}."
      },
      "tokenOfOwnerByIndex(address,uint256)": {
        "details": "See {IERC721Enumerable-tokenOfOwnerByIndex}."
      },
      "tokenURI(uint256)": {
        "details": "See {IERC721Metadata-tokenURI}."
      },
      "totalSupply()": {
        "details": "See {IERC721Enumerable-totalSupply}."
      },
      "transferFrom(address,address,uint256)": {
        "details": "See {IERC721-transferFrom}."
      },
      "transferOwnership(address)": {
        "details": "Transfers ownership of the contract to a new account (`newOwner`). Can only be called by the current owner."
      }
    },
    "version": 1
  },
  "userdoc": {
    "kind": "user",
    "methods": {},
    "version": 1
  }
}