{
  "contractName": "Lootbox",
  "abi": [
    {
      "inputs": [
        {
          "internalType": "contract IERC20",
          "name": "_gen",
          "type": "address"
        },
        {
          "internalType": "contract GenNFT",
          "name": "_nft",
          "type": "address"
        }
      ],
      "stateMutability": "nonpayable",
      "type": "constructor"
    },
    {
      "anonymous": false,
      "inputs": [
        {
          "indexed": true,
          "internalType": "address",
          "name": "previousOwner",
          "type": "address"
        },
        {
          "indexed": true,
          "internalType": "address",
          "name": "newOwner",
          "type": "address"
        }
      ],
      "name": "OwnershipTransferred",
      "type": "event"
    },
    {
      "anonymous": false,
      "inputs": [
        {
          "indexed": false,
          "internalType": "address",
          "name": "buyer",
          "type": "address"
        },
        {
          "indexed": false,
          "internalType": "uint256",
          "name": "numPacks",
          "type": "uint256"
        }
      ],
      "name": "Purchased",
      "type": "event"
    },
    {
      "anonymous": false,
      "inputs": [
        {
          "indexed": false,
          "internalType": "address",
          "name": "buyer",
          "type": "address"
        }
      ],
      "name": "RewardRedeemed",
      "type": "event"
    },
    {
      "inputs": [
        {
          "internalType": "uint256",
          "name": "",
          "type": "uint256"
        }
      ],
      "name": "chances",
      "outputs": [
        {
          "internalType": "uint256",
          "name": "",
          "type": "uint256"
        }
      ],
      "stateMutability": "view",
      "type": "function"
    },
    {
      "inputs": [],
      "name": "gen",
      "outputs": [
        {
          "internalType": "contract IERC20",
          "name": "",
          "type": "address"
        }
      ],
      "stateMutability": "view",
      "type": "function"
    },
    {
      "inputs": [],
      "name": "nft",
      "outputs": [
        {
          "internalType": "contract GenNFT",
          "name": "",
          "type": "address"
        }
      ],
      "stateMutability": "view",
      "type": "function"
    },
    {
      "inputs": [],
      "name": "owner",
      "outputs": [
        {
          "internalType": "address",
          "name": "",
          "type": "address"
        }
      ],
      "stateMutability": "view",
      "type": "function"
    },
    {
      "inputs": [
        {
          "internalType": "address",
          "name": "",
          "type": "address"
        }
      ],
      "name": "purchases",
      "outputs": [
        {
          "internalType": "uint256",
          "name": "numPacks",
          "type": "uint256"
        },
        {
          "components": [
            {
              "internalType": "uint256",
              "name": "blockNumber",
              "type": "uint256"
            }
          ],
          "internalType": "struct Random.Seed",
          "name": "seed",
          "type": "tuple"
        }
      ],
      "stateMutability": "view",
      "type": "function"
    },
    {
      "inputs": [],
      "name": "renounceOwnership",
      "outputs": [],
      "stateMutability": "nonpayable",
      "type": "function"
    },
    {
      "inputs": [
        {
          "internalType": "address",
          "name": "newOwner",
          "type": "address"
        }
      ],
      "name": "transferOwnership",
      "outputs": [],
      "stateMutability": "nonpayable",
      "type": "function"
    },
    {
      "inputs": [
        {
          "internalType": "uint256",
          "name": "numPacks",
          "type": "uint256"
        }
      ],
      "name": "buy",
      "outputs": [],
      "stateMutability": "nonpayable",
      "type": "function"
    },
    {
      "inputs": [],
      "name": "redeem",
      "outputs": [],
      "stateMutability": "nonpayable",
      "type": "function"
    },
    {
      "inputs": [
        {
          "components": [
            {
              "internalType": "uint256",
              "name": "packPrice",
              "type": "uint256"
            },
            {
              "internalType": "uint256",
              "name": "maxPacksPerPurchase",
              "type": "uint256"
            }
          ],
          "internalType": "struct Lootbox.Config",
          "name": "_config",
          "type": "tuple"
        }
      ],
      "name": "setConfig",
      "outputs": [],
      "stateMutability": "nonpayable",
      "type": "function"
    },
    {
      "inputs": [],
      "name": "getConfig",
      "outputs": [
        {
          "components": [
            {
              "internalType": "uint256",
              "name": "packPrice",
              "type": "uint256"
            },
            {
              "internalType": "uint256",
              "name": "maxPacksPerPurchase",
              "type": "uint256"
            }
          ],
          "internalType": "struct Lootbox.Config",
          "name": "",
          "type": "tuple"
        }
      ],
      "stateMutability": "view",
      "type": "function"
    },
    {
      "inputs": [
        {
          "internalType": "uint256[]",
          "name": "_chances",
          "type": "uint256[]"
        }
      ],
      "name": "setChances",
      "outputs": [],
      "stateMutability": "nonpayable",
      "type": "function"
    }
  ],
  "bytecode": "0x60c060405260026080819052603260a08190526006919091556007553480156200002857600080fd5b5060405162001093380380620010938339810160408190526200004b91620001a9565b60006200005762000138565b600080546001600160a01b0319166001600160a01b0383169081178255604051929350917f8be0079c531659141344cd1fd0a4f28419497f9722a3daafe3b4186f6b6457e0908290a350600180546001600160a01b038085166001600160a01b03199283161790925560028054928416928216929092179091556003805490911661dead1790556040805160e0810182526119c88152611fa460208201526123289181019190915261258060608201526126ac608082015261270b60a082015261271060c08201526200012f9060049060076200013c565b50505062000200565b3390565b82805482825590600052602060002090810192821562000180579160200282015b8281111562000180578251829061ffff169055916020019190600101906200015d565b506200018e92915062000192565b5090565b5b808211156200018e576000815560010162000193565b60008060408385031215620001bc578182fd5b8251620001c981620001e7565b6020840151909250620001dc81620001e7565b809150509250929050565b6001600160a01b0381168114620001fd57600080fd5b50565b610e8380620002106000396000f3fe608060405234801561001057600080fd5b50600436106100b45760003560e01c8063b42dfa0d11610071578063b42dfa0d14610130578063be040fb014610138578063c3f909d414610140578063c40233a314610155578063d96a094a14610175578063f2fde38b14610188576100b4565b8063405522d6146100b957806347ccca02146100ce5780636493e079146100ec578063715018a6146100ff578063842a77d3146101075780638da5cb5b14610128575b600080fd5b6100cc6100c7366004610a60565b61019b565b005b6100d66101f1565b6040516100e39190610b08565b60405180910390f35b6100cc6100fa366004610981565b610200565b6100cc610256565b61011a610115366004610953565b6102df565b6040516100e3929190610d58565b6100d6610304565b6100d6610313565b6100cc610322565b610148610559565b6040516100e39190610d41565b610168610163366004610aae565b61057c565b6040516100e39190610ac6565b6100cc610183366004610aae565b61059d565b6100cc610196366004610953565b610717565b6101a36107d7565b6001600160a01b03166101b4610304565b6001600160a01b0316146101e35760405162461bcd60e51b81526004016101da90610c47565b60405180910390fd5b805160065560200151600755565b6002546001600160a01b031681565b6102086107d7565b6001600160a01b0316610219610304565b6001600160a01b03161461023f5760405162461bcd60e51b81526004016101da90610c47565b80516102529060049060208401906108d9565b5050565b61025e6107d7565b6001600160a01b031661026f610304565b6001600160a01b0316146102955760405162461bcd60e51b81526004016101da90610c47565b600080546040516001600160a01b03909116907f8be0079c531659141344cd1fd0a4f28419497f9722a3daafe3b4186f6b6457e0908390a3600080546001600160a01b0319169055565b6005602090815260009182526040918290208054835192830190935260010154815282565b6000546001600160a01b031690565b6001546001600160a01b031681565b336000908152600560205260409020805461034f5760405162461bcd60e51b81526004016101da90610c19565b60408051602081019091526001820154815261036a906107db565b6103865760405162461bcd60e51b81526004016101da90610c19565b6000610394826001016107f3565b905060006103ab68056bc75e2d6310000083610df7565b905060005b83548110156105175760006103c761271084610df7565b9050600160005b6004548110156104285782600482815481106103fa57634e487b7160e01b600052603260045260246000fd5b90600052602060002001541161041857610415816002610d91565b91505b61042181610ddc565b90506103ce565b506002546040516335086a6b60e11b81526000916001600160a01b031690636a10d4d69061045c9033908690600401610b40565b602060405180830381600087803b15801561047657600080fd5b505af115801561048a573d6000803e3d6000fd5b505050506040513d601f19601f820116820180604052508101906104ae9190610a48565b600288018054600181018255600091825260209091200181905590506104d661271086610da9565b9450612710851015610503576104eb8661085e565b955061050068056bc75e2d6310000087610df7565b94505b5050508061051090610ddc565b90506103b0565b50600083556040517f2f00e5a58a043ea9d5d2724a9b888571b883ca513b06f0d3a777587896e1e9cf9061054c903390610b08565b60405180910390a1505050565b610561610924565b50604080518082019091526006548152600754602082015290565b6004818154811061058c57600080fd5b600091825260209091200154905081565b336000908152600560205260409020816105c95760405162461bcd60e51b81526004016101da90610c7c565b8054156105e85760405162461bcd60e51b81526004016101da90610cf8565b60075482111561060a5760405162461bcd60e51b81526004016101da90610b59565b60065460009061061a9084610dbd565b61062c90670de0b6b3a7640000610dbd565b6001546003546040516323b872dd60e01b81529293506001600160a01b03918216926323b872dd926106679233929116908690600401610b1c565b602060405180830381600087803b15801561068157600080fd5b505af1158015610695573d6000803e3d6000fd5b505050506040513d601f19601f820116820180604052508101906106b99190610a28565b503360008181526005602081815260408084208881558151808401835243815294869052929091529151600190910155517fa512fb2532ca8587f236380171326ebb69670e86a2ba0c4412a3fcca4c3ada9b9161054c918690610b40565b61071f6107d7565b6001600160a01b0316610730610304565b6001600160a01b0316146107565760405162461bcd60e51b81526004016101da90610c47565b6001600160a01b03811661077c5760405162461bcd60e51b81526004016101da90610bd3565b600080546040516001600160a01b03808516939216917f8be0079c531659141344cd1fd0a4f28419497f9722a3daafe3b4186f6b6457e091a3600080546001600160a01b0319166001600160a01b0392909216919091179055565b3390565b80516000906107eb906001610d91565b431192915050565b60408051602081019091528154815260009061080e906108d3565b61082a5760405162461bcd60e51b81526004016101da90610b9c565b8154431161084a5760405162461bcd60e51b81526004016101da90610cb3565b8154610857906001610d91565b4092915050565b60006002826040516020016108739190610ac6565b60408051601f198184030181529082905261088d91610acf565b602060405180830381855afa1580156108aa573d6000803e3d6000fd5b5050506040513d601f19601f820116820180604052508101906108cd9190610a48565b92915050565b51151590565b828054828255906000526020600020908101928215610914579160200282015b828111156109145782518255916020019190600101906108f9565b5061092092915061093e565b5090565b604051806040016040528060008152602001600081525090565b5b80821115610920576000815560010161093f565b600060208284031215610964578081fd5b81356001600160a01b038116811461097a578182fd5b9392505050565b60006020808385031215610993578182fd5b823567ffffffffffffffff808211156109aa578384fd5b818501915085601f8301126109bd578384fd5b8135818111156109cf576109cf610e37565b83810291506109df848301610d67565b8181528481019084860184860187018a10156109f9578788fd5b8795505b83861015610a1b5780358352600195909501949186019186016109fd565b5098975050505050505050565b600060208284031215610a39578081fd5b8151801515811461097a578182fd5b600060208284031215610a59578081fd5b5051919050565b600060408284031215610a71578081fd5b6040516040810181811067ffffffffffffffff82111715610a9457610a94610e37565b604052823581526020928301359281019290925250919050565b600060208284031215610abf578081fd5b5035919050565b90815260200190565b60008251815b81811015610aef5760208186018101518583015201610ad5565b81811115610afd5782828501525b509190910192915050565b6001600160a01b0391909116815260200190565b6001600160a01b039384168152919092166020820152604081019190915260600190565b6001600160a01b03929092168252602082015260400190565b60208082526023908201527f6578636565646564206d6178696d756d207061636b732070657220707572636860408201526261736560e81b606082015260800190565b60208082526017908201527f53656564206973206e6f7420696e697469616c697a6564000000000000000000604082015260600190565b60208082526026908201527f4f776e61626c653a206e6577206f776e657220697320746865207a65726f206160408201526564647265737360d01b606082015260800190565b6020808252601490820152731c1d5c98da185cd9481c1858dadcc8199a5c9cdd60621b604082015260600190565b6020808252818101527f4f776e61626c653a2063616c6c6572206973206e6f7420746865206f776e6572604082015260600190565b6020808252601e908201527f6e756d5061636b732073686f756c64206265206d6f7265207468616e20300000604082015260600190565b60208082526025908201527f57616974206f6e65206d6f726520626c6f636b20746f206f70656e20746869736040820152640814d9595960da1b606082015260800190565b60208082526029908201527f6f70656e207061636b73206265666f7265206d616b696e6720616e6f7468657260408201526820707572636861736560b81b606082015260800190565b815181526020918201519181019190915260400190565b91825251602082015260400190565b60405181810167ffffffffffffffff81118282101715610d8957610d89610e37565b604052919050565b60008219821115610da457610da4610e0b565b500190565b600082610db857610db8610e21565b500490565b6000816000190483118215151615610dd757610dd7610e0b565b500290565b6000600019821415610df057610df0610e0b565b5060010190565b600082610e0657610e06610e21565b500690565b634e487b7160e01b600052601160045260246000fd5b634e487b7160e01b600052601260045260246000fd5b634e487b7160e01b600052604160045260246000fdfea2646970667358221220471ddbb08bfa6d36a52053af3e1b0e825d88ac69053e3422be89c310d1b42a9664736f6c63430008000033",
  "immutableReferences": {},
  "source": "// SPDX-License-Identifier: MIT\npragma solidity >=0.8.0;\npragma experimental ABIEncoderV2;\n\nimport \"../oz/utils/structs/EnumerableSet.sol\";\nimport \"../oz/access/Ownable.sol\";\nimport \"./GenNFT.sol\";\nimport \"./Random.sol\";\nimport \"../oz/token/ERC20/ERC20.sol\";\nimport \"../oz/token/ERC20/IERC20.sol\";\nimport \"../oz/token/ERC20/utils/SafeERC20.sol\";\n\ncontract Lootbox is Ownable {\n    \n    using Random for Random.Seed;\n    using SafeERC20 for IERC20;\n    \n    struct Config {\n        uint packPrice;\n        uint maxPacksPerPurchase;\n    }\n    \n    struct Purchase {\n        uint numPacks;\n        Random.Seed seed;\n        uint[] nftIds;\n    }\n    \n    event RewardRedeemed(address buyer);\n    event Purchased(address buyer, uint numPacks);\n\n    IERC20 public gen;\n    GenNFT public nft;\n    address private dead;\n    uint[] public chances;\n \n    mapping(address=>Purchase) public purchases;\n    \n    Config config = Config(2, 50);\n    \n    constructor(IERC20 _gen, GenNFT _nft) {\n        gen = _gen;\n        nft = _nft;\n        dead = 0x000000000000000000000000000000000000dEaD;\n        \n        chances = [6600, 8100, 9000, 9600, 9900, 9995, 10000];\n    }\n    \n    function buy(uint numPacks) public {\n        Purchase storage purchase = purchases[msg.sender];\n        require(numPacks > 0, \"numPacks should be more than 0\");\n        require(purchase.numPacks == 0, \"open packs before making another purchase\");\n        require(numPacks <= config.maxPacksPerPurchase, \"exceeded maximum packs per purchase\");\n        \n        uint price = numPacks * config.packPrice * 1e18;\n        \n        gen.transferFrom(msg.sender, dead, price);\n        \n        purchases[msg.sender].numPacks = numPacks;\n        purchases[msg.sender].seed = Random.Seed(block.number);\n        \n        emit Purchased(msg.sender, numPacks);\n    }\n    \n    function redeem() public {\n        Purchase storage purchase = purchases[msg.sender];\n        \n        require(purchase.numPacks > 0, \"purchase packs first\");\n        require(purchase.seed.isReady(), \"purchase packs first\");\n    \n        bytes32 seed = purchase.seed.get();\n        uint nftSeedIterator = uint(seed) % 100000000000000000000;\n        for(uint i = 0; i < purchase.numPacks; ++i) {\n            uint luckyNumber = nftSeedIterator % 10000;\n            uint nftTypeId = 1;\n            for (uint j = 0; j < chances.length; ++j)\n            if (chances[j] <= luckyNumber) {\n                nftTypeId = j + 2;\n            }\n             \n            uint tokenId = nft.createToken(msg.sender, nftTypeId);\n                \n            purchase.nftIds.push(tokenId);\n            \n            nftSeedIterator = nftSeedIterator / 10000;\n            if (nftSeedIterator < 10000) {\n                seed = rehash(seed);\n                nftSeedIterator = uint(seed) % 100000000000000000000;    \n            }\n        }\n        \n        purchase.numPacks = 0;\n        \n        emit RewardRedeemed(msg.sender);\n    }\n    \n    function rehash(bytes32 b32) internal pure returns (bytes32) {\n      return sha256(abi.encodePacked(b32));\n    }\n    \n    //Configuration\n    \n    function setConfig(Config memory _config) public onlyOwner {\n        config = _config;\n    }\n    \n    function getConfig() external view returns (Config memory) {\n        return config;\n    }\n    \n    function setChances(uint[] memory _chances) public onlyOwner {\n        chances = _chances;\n    }\n}",
  "sourcePath": "/Users/alexei120991/Documents/Project/RUNNER/EVA/Test/contracts/Lootbox.sol",
  "compiler": {
    "name": "solc",
    "version": "0.8.0+commit.c7dfd78e.Emscripten.clang"
  },
  "schemaVersion": "3.3.4",
  "updatedAt": "2021-07-08T12:53:22.996Z",
  "devdoc": {
    "kind": "dev",
    "methods": {
      "owner()": {
        "details": "Returns the address of the current owner."
      },
      "renounceOwnership()": {
        "details": "Leaves the contract without owner. It will not be possible to call `onlyOwner` functions anymore. Can only be called by the current owner. NOTE: Renouncing ownership will leave the contract without an owner, thereby removing any functionality that is only available to the owner."
      },
      "transferOwnership(address)": {
        "details": "Transfers ownership of the contract to a new account (`newOwner`). Can only be called by the current owner."
      }
    },
    "version": 1
  },
  "userdoc": {
    "kind": "user",
    "methods": {},
    "version": 1
  }
}