{
  "contractName": "MasterChef",
  "abi": [
    {
      "inputs": [
        {
          "internalType": "contract SharesToken",
          "name": "_sh",
          "type": "address"
        },
        {
          "internalType": "contract IShares",
          "name": "_shares",
          "type": "address"
        },
        {
          "internalType": "address",
          "name": "_devaddr",
          "type": "address"
        },
        {
          "internalType": "address",
          "name": "_feeAddress",
          "type": "address"
        },
        {
          "internalType": "uint256",
          "name": "_shPerBlock",
          "type": "uint256"
        },
        {
          "internalType": "uint256",
          "name": "_startBlock",
          "type": "uint256"
        },
        {
          "internalType": "uint256",
          "name": "_shAllocPoint",
          "type": "uint256"
        }
      ],
      "stateMutability": "nonpayable",
      "type": "constructor"
    },
    {
      "anonymous": false,
      "inputs": [
        {
          "indexed": true,
          "internalType": "address",
          "name": "user",
          "type": "address"
        },
        {
          "indexed": true,
          "internalType": "uint256",
          "name": "pid",
          "type": "uint256"
        },
        {
          "indexed": false,
          "internalType": "uint256",
          "name": "amount",
          "type": "uint256"
        }
      ],
      "name": "Claim",
      "type": "event"
    },
    {
      "anonymous": false,
      "inputs": [
        {
          "indexed": true,
          "internalType": "address",
          "name": "user",
          "type": "address"
        },
        {
          "indexed": true,
          "internalType": "uint256",
          "name": "pid",
          "type": "uint256"
        },
        {
          "indexed": false,
          "internalType": "uint256",
          "name": "amount",
          "type": "uint256"
        }
      ],
      "name": "Deposit",
      "type": "event"
    },
    {
      "anonymous": false,
      "inputs": [
        {
          "indexed": true,
          "internalType": "address",
          "name": "user",
          "type": "address"
        },
        {
          "indexed": true,
          "internalType": "uint256",
          "name": "pid",
          "type": "uint256"
        },
        {
          "indexed": false,
          "internalType": "uint256",
          "name": "amount",
          "type": "uint256"
        }
      ],
      "name": "EmergencyWithdraw",
      "type": "event"
    },
    {
      "anonymous": false,
      "inputs": [
        {
          "indexed": true,
          "internalType": "address",
          "name": "previousOwner",
          "type": "address"
        },
        {
          "indexed": true,
          "internalType": "address",
          "name": "newOwner",
          "type": "address"
        }
      ],
      "name": "OwnershipTransferred",
      "type": "event"
    },
    {
      "anonymous": false,
      "inputs": [
        {
          "indexed": true,
          "internalType": "address",
          "name": "user",
          "type": "address"
        },
        {
          "indexed": true,
          "internalType": "uint256",
          "name": "pid",
          "type": "uint256"
        },
        {
          "indexed": false,
          "internalType": "uint256",
          "name": "amount",
          "type": "uint256"
        }
      ],
      "name": "Withdraw",
      "type": "event"
    },
    {
      "inputs": [],
      "name": "devaddr",
      "outputs": [
        {
          "internalType": "address",
          "name": "",
          "type": "address"
        }
      ],
      "stateMutability": "view",
      "type": "function"
    },
    {
      "inputs": [],
      "name": "feeAddress",
      "outputs": [
        {
          "internalType": "address",
          "name": "",
          "type": "address"
        }
      ],
      "stateMutability": "view",
      "type": "function"
    },
    {
      "inputs": [
        {
          "internalType": "address",
          "name": "",
          "type": "address"
        }
      ],
      "name": "lastTokenWithdrawBlock",
      "outputs": [
        {
          "internalType": "uint256",
          "name": "",
          "type": "uint256"
        }
      ],
      "stateMutability": "view",
      "type": "function"
    },
    {
      "inputs": [],
      "name": "owner",
      "outputs": [
        {
          "internalType": "address",
          "name": "",
          "type": "address"
        }
      ],
      "stateMutability": "view",
      "type": "function"
    },
    {
      "inputs": [
        {
          "internalType": "uint256",
          "name": "",
          "type": "uint256"
        }
      ],
      "name": "poolInfo",
      "outputs": [
        {
          "internalType": "uint256",
          "name": "amount",
          "type": "uint256"
        },
        {
          "internalType": "contract IERC20",
          "name": "lpToken",
          "type": "address"
        },
        {
          "internalType": "uint256",
          "name": "allocPoint",
          "type": "uint256"
        },
        {
          "internalType": "uint256",
          "name": "lastRewardBlock",
          "type": "uint256"
        },
        {
          "internalType": "uint256",
          "name": "accShPerPower",
          "type": "uint256"
        },
        {
          "internalType": "uint16",
          "name": "depositFeeBP",
          "type": "uint16"
        },
        {
          "internalType": "uint256",
          "name": "lastSharesRewardBlock",
          "type": "uint256"
        },
        {
          "internalType": "uint256",
          "name": "accSharesPerPower",
          "type": "uint256"
        }
      ],
      "stateMutability": "view",
      "type": "function"
    },
    {
      "inputs": [
        {
          "internalType": "address",
          "name": "",
          "type": "address"
        },
        {
          "internalType": "uint8",
          "name": "",
          "type": "uint8"
        }
      ],
      "name": "referrals",
      "outputs": [
        {
          "internalType": "uint256",
          "name": "",
          "type": "uint256"
        }
      ],
      "stateMutability": "view",
      "type": "function"
    },
    {
      "inputs": [
        {
          "internalType": "address",
          "name": "",
          "type": "address"
        }
      ],
      "name": "referrer",
      "outputs": [
        {
          "internalType": "address",
          "name": "",
          "type": "address"
        }
      ],
      "stateMutability": "view",
      "type": "function"
    },
    {
      "inputs": [
        {
          "internalType": "address",
          "name": "",
          "type": "address"
        }
      ],
      "name": "referrerReward",
      "outputs": [
        {
          "internalType": "uint256",
          "name": "",
          "type": "uint256"
        }
      ],
      "stateMutability": "view",
      "type": "function"
    },
    {
      "inputs": [
        {
          "internalType": "uint256",
          "name": "",
          "type": "uint256"
        }
      ],
      "name": "referrerRewardRate",
      "outputs": [
        {
          "internalType": "uint16",
          "name": "",
          "type": "uint16"
        }
      ],
      "stateMutability": "view",
      "type": "function"
    },
    {
      "inputs": [],
      "name": "renounceOwnership",
      "outputs": [],
      "stateMutability": "nonpayable",
      "type": "function"
    },
    {
      "inputs": [],
      "name": "sh",
      "outputs": [
        {
          "internalType": "contract SharesToken",
          "name": "",
          "type": "address"
        }
      ],
      "stateMutability": "view",
      "type": "function"
    },
    {
      "inputs": [],
      "name": "shPerBlock",
      "outputs": [
        {
          "internalType": "uint256",
          "name": "",
          "type": "uint256"
        }
      ],
      "stateMutability": "view",
      "type": "function"
    },
    {
      "inputs": [],
      "name": "shares",
      "outputs": [
        {
          "internalType": "contract IShares",
          "name": "",
          "type": "address"
        }
      ],
      "stateMutability": "view",
      "type": "function"
    },
    {
      "inputs": [],
      "name": "startBlock",
      "outputs": [
        {
          "internalType": "uint256",
          "name": "",
          "type": "uint256"
        }
      ],
      "stateMutability": "view",
      "type": "function"
    },
    {
      "inputs": [],
      "name": "totalAllocPoint",
      "outputs": [
        {
          "internalType": "uint256",
          "name": "",
          "type": "uint256"
        }
      ],
      "stateMutability": "view",
      "type": "function"
    },
    {
      "inputs": [
        {
          "internalType": "address",
          "name": "newOwner",
          "type": "address"
        }
      ],
      "name": "transferOwnership",
      "outputs": [],
      "stateMutability": "nonpayable",
      "type": "function"
    },
    {
      "inputs": [
        {
          "internalType": "uint256",
          "name": "",
          "type": "uint256"
        },
        {
          "internalType": "address",
          "name": "",
          "type": "address"
        }
      ],
      "name": "userInfo",
      "outputs": [
        {
          "internalType": "uint256",
          "name": "amount",
          "type": "uint256"
        },
        {
          "internalType": "uint256",
          "name": "rewardKept",
          "type": "uint256"
        },
        {
          "internalType": "uint256",
          "name": "rewardDebt",
          "type": "uint256"
        },
        {
          "internalType": "uint256",
          "name": "rewardSharesKept",
          "type": "uint256"
        },
        {
          "internalType": "uint256",
          "name": "rewardSharesDebt",
          "type": "uint256"
        },
        {
          "internalType": "uint256",
          "name": "lastClaimedBlock",
          "type": "uint256"
        }
      ],
      "stateMutability": "view",
      "type": "function"
    },
    {
      "inputs": [],
      "name": "poolLength",
      "outputs": [
        {
          "internalType": "uint256",
          "name": "",
          "type": "uint256"
        }
      ],
      "stateMutability": "view",
      "type": "function"
    },
    {
      "inputs": [
        {
          "internalType": "uint256",
          "name": "_allocPoint",
          "type": "uint256"
        },
        {
          "internalType": "contract IERC20",
          "name": "_lpToken",
          "type": "address"
        },
        {
          "internalType": "uint16",
          "name": "_depositFeeBP",
          "type": "uint16"
        },
        {
          "internalType": "bool",
          "name": "_withUpdate",
          "type": "bool"
        }
      ],
      "name": "add",
      "outputs": [],
      "stateMutability": "nonpayable",
      "type": "function"
    },
    {
      "inputs": [
        {
          "internalType": "uint256",
          "name": "_pid",
          "type": "uint256"
        },
        {
          "internalType": "uint256",
          "name": "_allocPoint",
          "type": "uint256"
        },
        {
          "internalType": "uint16",
          "name": "_depositFeeBP",
          "type": "uint16"
        },
        {
          "internalType": "bool",
          "name": "_withUpdate",
          "type": "bool"
        }
      ],
      "name": "set",
      "outputs": [],
      "stateMutability": "nonpayable",
      "type": "function"
    },
    {
      "inputs": [
        {
          "internalType": "address",
          "name": "_devaddr",
          "type": "address"
        }
      ],
      "name": "dev",
      "outputs": [],
      "stateMutability": "nonpayable",
      "type": "function"
    },
    {
      "inputs": [
        {
          "internalType": "address",
          "name": "_feeAddress",
          "type": "address"
        }
      ],
      "name": "setFeeAddress",
      "outputs": [],
      "stateMutability": "nonpayable",
      "type": "function"
    },
    {
      "inputs": [
        {
          "internalType": "uint256",
          "name": "_shPerBlock",
          "type": "uint256"
        }
      ],
      "name": "updateEmissionRate",
      "outputs": [],
      "stateMutability": "nonpayable",
      "type": "function"
    },
    {
      "inputs": [
        {
          "internalType": "uint256",
          "name": "_pid",
          "type": "uint256"
        },
        {
          "internalType": "address",
          "name": "_user",
          "type": "address"
        }
      ],
      "name": "pendingSh",
      "outputs": [
        {
          "internalType": "uint256",
          "name": "",
          "type": "uint256"
        }
      ],
      "stateMutability": "view",
      "type": "function"
    },
    {
      "inputs": [
        {
          "internalType": "uint256",
          "name": "_pid",
          "type": "uint256"
        },
        {
          "internalType": "address",
          "name": "_user",
          "type": "address"
        }
      ],
      "name": "pendingShares",
      "outputs": [
        {
          "internalType": "uint256",
          "name": "",
          "type": "uint256"
        }
      ],
      "stateMutability": "view",
      "type": "function"
    },
    {
      "inputs": [
        {
          "internalType": "uint256",
          "name": "_pid",
          "type": "uint256"
        },
        {
          "internalType": "uint256",
          "name": "_amount",
          "type": "uint256"
        },
        {
          "internalType": "address",
          "name": "_ref",
          "type": "address"
        }
      ],
      "name": "deposit",
      "outputs": [],
      "stateMutability": "nonpayable",
      "type": "function"
    },
    {
      "inputs": [
        {
          "internalType": "uint256",
          "name": "_pid",
          "type": "uint256"
        },
        {
          "internalType": "uint256",
          "name": "_amount",
          "type": "uint256"
        }
      ],
      "name": "withdraw",
      "outputs": [],
      "stateMutability": "nonpayable",
      "type": "function"
    },
    {
      "inputs": [
        {
          "internalType": "uint256",
          "name": "_pid",
          "type": "uint256"
        }
      ],
      "name": "emergencyWithdraw",
      "outputs": [],
      "stateMutability": "nonpayable",
      "type": "function"
    },
    {
      "inputs": [
        {
          "internalType": "uint256",
          "name": "_pid",
          "type": "uint256"
        }
      ],
      "name": "claim",
      "outputs": [],
      "stateMutability": "nonpayable",
      "type": "function"
    },
    {
      "inputs": [
        {
          "internalType": "uint256",
          "name": "_pid",
          "type": "uint256"
        }
      ],
      "name": "reinvest",
      "outputs": [],
      "stateMutability": "nonpayable",
      "type": "function"
    }
  ],
  "bytecode": "0x600060095560e0604052610258608090815261012c60a052606460c0526200002c90600e90600362000319565b503480156200003a57600080fd5b5060405162002d1738038062002d178339810160408190526200005d91620003e0565b60006200006962000315565b600080546001600160a01b0319166001600160a01b0383169081178255604051929350917f8be0079c531659141344cd1fd0a4f28419497f9722a3daafe3b4186f6b6457e0908290a3506001600160a01b038516620000e55760405162461bcd60e51b8152600401620000dc9062000466565b60405180910390fd5b6001600160a01b0384166200010e5760405162461bcd60e51b8152600401620000dc9062000466565b600180546001600160a01b03199081166001600160a01b03998a169081178355600280548316998b1699909917909855600380548216978a169790971790965560058054871695891695909517909455600492909255600a81905560098290556040805161010081018252600080825260208201978852918101938452606081018381526080820183815260a0830184815260c0840195865260e0840185815260068054998a01815590955292517ff652222313e28459528d920b65115c16c04f3efc82aaedc97be59f3f377c0d3f60089098029788015597517ff652222313e28459528d920b65115c16c04f3efc82aaedc97be59f3f377c0d408701805490981699169890981790955591517ff652222313e28459528d920b65115c16c04f3efc82aaedc97be59f3f377c0d4184015594517ff652222313e28459528d920b65115c16c04f3efc82aaedc97be59f3f377c0d4283015592517ff652222313e28459528d920b65115c16c04f3efc82aaedc97be59f3f377c0d4382015590517ff652222313e28459528d920b65115c16c04f3efc82aaedc97be59f3f377c0d448201805461ffff191661ffff90921691909117905591517ff652222313e28459528d920b65115c16c04f3efc82aaedc97be59f3f377c0d45830155517ff652222313e28459528d920b65115c16c04f3efc82aaedc97be59f3f377c0d4690910155620004ab565b3390565b82805482825590600052602060002090600f01601090048101928215620003b75791602002820160005b838211156200038557835183826101000a81548161ffff021916908361ffff160217905550926020019260020160208160010104928301926001030262000343565b8015620003b55782816101000a81549061ffff021916905560020160208160010104928301926001030262000385565b505b50620003c5929150620003c9565b5090565b5b80821115620003c55760008155600101620003ca565b600080600080600080600060e0888a031215620003fb578283fd5b8751620004088162000492565b60208901519097506200041b8162000492565b60408901519096506200042e8162000492565b6060890151909550620004418162000492565b809450506080880151925060a0880151915060c0880151905092959891949750929550565b6020808252601290820152710616464726573732063616e277420626520360741b604082015260600190565b6001600160a01b0381168114620004a857600080fd5b50565b61285c80620004bb6000396000f3fe608060405234801561001057600080fd5b50600436106101da5760003560e01c806348cd4cb1116101045780638da5cb5b116100a2578063b65e933711610071578063b65e9337146103c2578063d49e77cd146103d5578063d9638422146103dd578063f2fde38b146103f0576101da565b80638da5cb5b1461036f5780638dbdbe6d14610377578063922af83b1461038a57806393f1a40b1461039d576101da565b806383b4918b116100de57806383b4918b1461032357806384e82a33146103365780638705fcd4146103495780638d88a90e1461035c576101da565b806348cd4cb1146103005780635312ea8e14610308578063715018a61461031b576101da565b80632525d4fc1161017c57806333b2c1b11161014b57806333b2c1b1146102ca578063379607f5146102d257806341275358146102e5578063441a3e70146102ed576101da565b80632525d4fc1461027c5780632c0ef0041461028f5780632cf003c214610297578063318e82a3146102aa576101da565b80631249d538116101b85780631249d538146102275780631526fe271461023a57806317caf6f1146102615780631a00817d14610269576101da565b806303314efa146101df578063081e3eda146101fd5780630ba84cd214610212575b600080fd5b6101e7610403565b6040516101f49190612395565b60405180910390f35b610205610412565b6040516101f491906126a4565b610225610220366004612250565b610418565b005b6102056102353660046121f7565b61046d565b61024d610248366004612250565b61048a565b6040516101f49897969594939291906126ad565b6102056104ef565b6102056102773660046121db565b6104f5565b61020561028a366004612280565b610507565b6101e761054c565b6101e76102a53660046121db565b61055b565b6102bd6102b8366004612250565b610576565b6040516101f49190612695565b6102056105ae565b6102256102e0366004612250565b6105b4565b6101e76107b8565b6102256102fb3660046122f4565b6107c7565b610205610944565b610225610316366004612250565b61094a565b610225610a3b565b610225610331366004612250565b610ac4565b6102256103443660046122a4565b610d7b565b6102256103573660046121db565b610fd1565b61022561036a3660046121db565b61101d565b6101e7611069565b610225610385366004612315565b611078565b6102056103983660046121db565b611506565b6103b06103ab366004612280565b611518565b6040516101f4969594939291906126f0565b6102056103d0366004612280565b611558565b6101e7611593565b6102256103eb36600461234d565b6115a2565b6102256103fe3660046121db565b6116f0565b6002546001600160a01b031681565b60065490565b6104206117b0565b6001600160a01b0316610431611069565b6001600160a01b0316146104605760405162461bcd60e51b81526004016104579061257c565b60405180910390fd5b6104686117b4565b600455565b600c60209081526000928352604080842090915290825290205481565b6006818154811061049a57600080fd5b6000918252602090912060089091020180546001820154600283015460038401546004850154600586015460068701546007909701549597506001600160a01b039094169592949193909261ffff9091169188565b60095481565b60086020526000908152604090205481565b60008281526007602090815260408083206001600160a01b0385168452909152812061053384846117df565b81600301546105429190612718565b9150505b92915050565b6001546001600160a01b031681565b600b602052600090815260409020546001600160a01b031681565b600e818154811061058657600080fd5b9060005260206000209060109182820401919006600202915054906101000a900461ffff1681565b60045481565b6000600682815481106105d757634e487b7160e01b600052603260045260246000fd5b600091825260208083208584526007825260408085203386529092529220600890910290910191506106088361190f565b60006106148433611b4c565b82600101546106239190612718565b9050600081116106455760405162461bcd60e51b81526004016104579061245e565b61064f3382611c47565b61065881611de7565b3360009081526008602052604081205460058401546101209161067a91611f24565b610684904361276f565b61068f90600a612750565b6106999190612730565b905060328111156106a8575060325b8015610726576001546001600160a01b03166340c10f193360646106cc8587612750565b6106d69190612730565b6040518363ffffffff1660e01b81526004016106f39291906123cd565b600060405180830381600087803b15801561070d57600080fd5b505af1158015610721573d6000803e3d6000fd5b505050505b84337f34fcbac0073d7c3d388e51312faf357774904998eeb8fca628b9e6f65ee1cbf760646107558587612750565b61075f9190612730565b6107699086612718565b60405161077691906126a4565b60405180910390a3600060018401556004840154835464e8d4a510009161079c91612750565b6107a69190612730565b60028401555050436005909101555050565b6005546001600160a01b031681565b6000600683815481106107ea57634e487b7160e01b600052603260045260246000fd5b6000918252602080832086845260078252604080852033865290925292208054600890920290920192508311156108335760405162461bcd60e51b8152600401610457906125e8565b61083c8461190f565b6108468433611f3d565b8215610898576001820154610865906001600160a01b03163385611fa9565b82816000016000828254610879919061276f565b909155505081548390839060009061089290849061276f565b90915550505b6004820154815464e8d4a51000916108af91612750565b6108b99190612730565b60028201556007820154815464e8d4a51000916108d591612750565b6108df9190612730565b6004820155836108fc573360009081526008602052604090204390555b83336001600160a01b03167ff279e6a1f5e320cca91135676d9cb6e44ca8a08c0b88342bcdb1144f6511b5688560405161093691906126a4565b60405180910390a350505050565b600a5481565b60006006828154811061096d57634e487b7160e01b600052603260045260246000fd5b60009182526020808320858452600782526040808520338652909252908320805460089093029091018054909450909284916109aa90849061276f565b9091555050805460008083556002830181905560018301819055600483018190556003830155836109e8573360009081526008602052604090204390555b6001830154610a01906001600160a01b03163383611fa9565b83336001600160a01b03167fbb757047c2b5f3974fe26b7c10f732e7bce710b0952a71082702781e62ae05958360405161093691906126a4565b610a436117b0565b6001600160a01b0316610a54611069565b6001600160a01b031614610a7a5760405162461bcd60e51b81526004016104579061257c565b600080546040516001600160a01b03909116907f8be0079c531659141344cd1fd0a4f28419497f9722a3daafe3b4186f6b6457e0908390a3600080546001600160a01b0319169055565b600060068281548110610ae757634e487b7160e01b600052603260045260246000fd5b60009182526020808320858452600782526040808520338652909252922060089091029091019150610b188361190f565b6000610b248433611b4c565b8260010154610b339190612718565b905060008111610b555760405162461bcd60e51b81526004016104579061245e565b610b5e81611de7565b33600090815260086020526040812054600584015461012091610b8091611f24565b610b8a904361276f565b610b9590600a612750565b610b9f9190612730565b90506032811115610bae575060325b8015610c2c576001546001600160a01b03166340c10f19306064610bd28587612750565b610bdc9190612730565b6040518363ffffffff1660e01b8152600401610bf99291906123cd565b600060405180830381600087803b158015610c1357600080fd5b505af1158015610c27573d6000803e3d6000fd5b505050505b600060018401556004840154835464e8d4a5100091610c4a91612750565b610c549190612730565b600284015560006064610c678385612750565b610c719190612730565b610c7b9084612718565b905060006006600081548110610ca157634e487b7160e01b600052603260045260246000fd5b600091825260208083203384527f6d5257204ebe7d88fd91ae87941cb2dd9d8062b64ae5a2bd2d28ec40b9fbf6df90915260408320600890920201925090610ce89061190f565b610cf3600033611f3d565b82826000016000828254610d079190612718565b9091555050805483908290600090610d20908490612718565b90915550506004820154815464e8d4a5100091610d3c91612750565b610d469190612730565b60028201556007820154815464e8d4a5100091610d6291612750565b610d6c9190612730565b60049091015550505050505050565b610d836117b0565b6001600160a01b0316610d94611069565b6001600160a01b031614610dba5760405162461bcd60e51b81526004016104579061257c565b6127108261ffff161115610de05760405162461bcd60e51b815260040161045790612419565b8015610dee57610dee6117b4565b6000600a544311610e0157600a54610e03565b435b90508460096000828254610e179190612718565b9091555050604080516101008101825260008082526001600160a01b0396871660208301908152928201978852606082018481526080830182815261ffff97881660a0850190815260c0850196875260e0850184815260068054600181018255955294517ff652222313e28459528d920b65115c16c04f3efc82aaedc97be59f3f377c0d3f60089095029485015594517ff652222313e28459528d920b65115c16c04f3efc82aaedc97be59f3f377c0d40840180546001600160a01b03191691909a161790985597517ff652222313e28459528d920b65115c16c04f3efc82aaedc97be59f3f377c0d4182015596517ff652222313e28459528d920b65115c16c04f3efc82aaedc97be59f3f377c0d4288015594517ff652222313e28459528d920b65115c16c04f3efc82aaedc97be59f3f377c0d43870155517ff652222313e28459528d920b65115c16c04f3efc82aaedc97be59f3f377c0d448601805461ffff1916919094161790925550517ff652222313e28459528d920b65115c16c04f3efc82aaedc97be59f3f377c0d45830155517ff652222313e28459528d920b65115c16c04f3efc82aaedc97be59f3f377c0d4690910155565b6005546001600160a01b03163314610ffb5760405162461bcd60e51b815260040161045790612614565b600580546001600160a01b0319166001600160a01b0392909216919091179055565b6003546001600160a01b031633146110475760405162461bcd60e51b815260040161045790612514565b600380546001600160a01b0319166001600160a01b0392909216919091179055565b6000546001600160a01b031690565b60006006848154811061109b57634e487b7160e01b600052603260045260246000fd5b600091825260208083208784526007825260408085203386529092529220600890910290910191506110cc8561190f565b6110d68533611f3d565b83156112245760018201546110f6906001600160a01b0316333087611fff565b600582015461ffff16156111f15760058201546000906127109061111e9061ffff1687612750565b6111289190612730565b60058054919250611167916001600160a01b031690611148846003612750565b6111529190612730565b60018601546001600160a01b03169190611fa9565b600280546001600160a01b03169063d0bc1a8890600590611189908590612750565b6111939190612730565b6040518263ffffffff1660e01b81526004016111af91906126a4565b600060405180830381600087803b1580156111c957600080fd5b505af11580156111dd573d6000803e3d6000fd5b5050505080856111ed919061276f565b9450505b838160000160008282546112059190612718565b909155505081548490839060009061121e908490612718565b90915550505b6004820154815464e8d4a510009161123b91612750565b6112459190612730565b60028201556007820154815464e8d4a510009161126191612750565b61126b9190612730565b60048201556005810154611280574360058201555b6001600160a01b038316158015906112a157506001600160a01b0383163314155b80156112c35750336000908152600b60205260409020546001600160a01b0316155b156114bd57336000908152600b6020908152604080832080546001600160a01b0319166001600160a01b0388169081179091558352600c82528083208380529091528120805460019290611318908490612718565b9091555050336000908152600c602081815260408084208480528252808420546001600160a01b0388168552928252808420600185529091528220805491929091611364908490612718565b9091555050336000908152600c60208181526040808420600185528252808420546001600160a01b03881685529282528084206002855290915282208054919290916113b1908490612718565b90915550506001600160a01b038084166000908152600b60205260409020541680156114bb576001600160a01b0381166000908152600c6020908152604080832060018085529252822080549192909161140c908490612718565b9091555050336000908152600c602081815260408084208480528252808420546001600160a01b0386168552928252808420600285529091528220805491929091611458908490612718565b90915550506001600160a01b038082166000908152600b60205260409020541680156114b9576001600160a01b0381166000908152600c602090815260408083206002845290915281208054600192906114b3908490612718565b90915550505b505b505b84336001600160a01b03167f90890809c654f11d6e72a28fa60149770a0d11ec6c92319d6ceb2bb0a4ea1a15866040516114f791906126a4565b60405180910390a35050505050565b600d6020526000908152604090205481565b6007602090815260009283526040808420909152908252902080546001820154600283015460038401546004850154600590950154939492939192909186565b60008281526007602090815260408083206001600160a01b038516845290915281206115848484611b4c565b81600101546105429190612718565b6003546001600160a01b031681565b6115aa6117b0565b6001600160a01b03166115bb611069565b6001600160a01b0316146115e15760405162461bcd60e51b81526004016104579061257c565b6127108261ffff1611156116075760405162461bcd60e51b815260040161045790612537565b8015611615576116156117b4565b826006858154811061163757634e487b7160e01b600052603260045260246000fd5b906000526020600020906008020160020154600954611656919061276f565b6116609190612718565b600981905550826006858154811061168857634e487b7160e01b600052603260045260246000fd5b90600052602060002090600802016002018190555081600685815481106116bf57634e487b7160e01b600052603260045260246000fd5b906000526020600020906008020160050160006101000a81548161ffff021916908361ffff16021790555050505050565b6116f86117b0565b6001600160a01b0316611709611069565b6001600160a01b03161461172f5760405162461bcd60e51b81526004016104579061257c565b6001600160a01b0381166117555760405162461bcd60e51b815260040161045790612488565b600080546040516001600160a01b03808516939216917f8be0079c531659141344cd1fd0a4f28419497f9722a3daafe3b4186f6b6457e091a3600080546001600160a01b0319166001600160a01b0392909216919091179055565b3390565b60065460005b818110156117db576117cb8161190f565b6117d4816127b2565b90506117ba565b5050565b6000806006848154811061180357634e487b7160e01b600052603260045260246000fd5b60009182526020808320878452600780835260408086206001600160a01b038a168752909352919093206008909202909201918201549192509060028611156118525760009350505050610546565b8260030154431180156118655750825415155b156118d857600061e10084600601544361187f919061276f565b6118899190612730565b9050600060036118a183670de0b6b3a7640000612750565b6118ab9190612730565b85549091506118bf8264e8d4a51000612750565b6118c99190612730565b6118d39084612718565b925050505b6004820154825464e8d4a51000906118f1908490612750565b6118fb9190612730565b611905919061276f565b9695505050505050565b60006006828154811061193257634e487b7160e01b600052603260045260246000fd5b90600052602060002090600802019050806003015443116119535750611b49565b8054158061196357506002810154155b1561197b574360038201819055600690910155611b49565b600081600301544361198d919061276f565b905060006009548360020154600454846119a79190612750565b6119b19190612750565b6119bb9190612730565b6001546003549192506001600160a01b03908116916340c10f1991166119e2600a85612730565b6040518363ffffffff1660e01b81526004016119ff9291906123cd565b600060405180830381600087803b158015611a1957600080fd5b505af1158015611a2d573d6000803e3d6000fd5b50506001546040516340c10f1960e01b81526001600160a01b0390911692506340c10f199150611a6390309085906004016123cd565b600060405180830381600087803b158015611a7d57600080fd5b505af1158015611a91573d6000803e3d6000fd5b505084549150611aa890508264e8d4a51000612750565b611ab29190612730565b836004016000828254611ac59190612718565b90915550504360038401819055600684015460009161e10091611ae79161276f565b611af19190612730565b90508015611b44576000611b06600383612730565b8554909150611b1a8264e8d4a51000612750565b611b249190612730565b856007016000828254611b379190612718565b9091555050436006860155505b505050505b50565b60008060068481548110611b7057634e487b7160e01b600052603260045260246000fd5b600091825260208083208784526007825260408085206001600160a01b03891686529092529220600460089092029092019081015460038201549193509043118015611bbc5750825415155b15611c2e576000836003015443611bd3919061276f565b90506000600954856002015460045484611bed9190612750565b611bf79190612750565b611c019190612730565b8554909150611c158264e8d4a51000612750565b611c1f9190612730565b611c299084612718565b925050505b6002820154825464e8d4a51000906118f1908490612750565b6001546040516370a0823160e01b81526000916001600160a01b0316906370a0823190611c78903090600401612395565b60206040518083038186803b158015611c9057600080fd5b505afa158015611ca4573d6000803e3d6000fd5b505050506040513d601f19601f82011682018060405250810190611cc89190612268565b905080821115611d5c5760015460405163a9059cbb60e01b81526001600160a01b039091169063a9059cbb90611d0490869085906004016123cd565b602060405180830381600087803b158015611d1e57600080fd5b505af1158015611d32573d6000803e3d6000fd5b505050506040513d601f19601f82011682018060405250810190611d569190612234565b50611de2565b60015460405163a9059cbb60e01b81526001600160a01b039091169063a9059cbb90611d8e90869086906004016123cd565b602060405180830381600087803b158015611da857600080fd5b505af1158015611dbc573d6000803e3d6000fd5b505050506040513d601f19601f82011682018060405250810190611de09190612234565b505b505050565b3360005b600e5460ff82161015611de2576001600160a01b039182166000908152600b60205260409020549091169081611e2057611de2565b6000612710600e8360ff1681548110611e4957634e487b7160e01b600052603260045260246000fd5b60009182526020909120601082040154611e7391600f166002026101000a900461ffff1686612750565b611e7d9190612730565b6001546040516340c10f1960e01b81529192506001600160a01b0316906340c10f1990611eb090869085906004016123cd565b600060405180830381600087803b158015611eca57600080fd5b505af1158015611ede573d6000803e3d6000fd5b505050506001600160a01b0383166000908152600d602052604081208054839290611f0a908490612718565b90915550829150611f1c9050816127cd565b915050611deb565b600081831015611f345781611f36565b825b9392505050565b60008281526007602090815260408083206001600160a01b03851684529091529020611f698383611b4c565b816001016000828254611f7c9190612718565b90915550611f8c905083836117df565b816003016000828254611f9f9190612718565b9091555050505050565b611de28363a9059cbb60e01b8484604051602401611fc89291906123cd565b60408051601f198184030181529190526020810180516001600160e01b03166001600160e01b031990931692909217909152612020565b611de0846323b872dd60e01b858585604051602401611fc8939291906123a9565b6000612075826040518060400160405280602081526020017f5361666545524332303a206c6f772d6c6576656c2063616c6c206661696c6564815250856001600160a01b03166120af9092919063ffffffff16565b805190915015611de257808060200190518101906120939190612234565b611de25760405162461bcd60e51b81526004016104579061264b565b60606120be84846000856120c6565b949350505050565b6060824710156120e85760405162461bcd60e51b8152600401610457906124ce565b6120f185612186565b61210d5760405162461bcd60e51b8152600401610457906125b1565b600080866001600160a01b031685876040516121299190612379565b60006040518083038185875af1925050503d8060008114612166576040519150601f19603f3d011682016040523d82523d6000602084013e61216b565b606091505b509150915061217b828286612190565b979650505050505050565b803b15155b919050565b6060831561219f575081611f36565b8251156121af5782518084602001fd5b8160405162461bcd60e51b815260040161045791906123e6565b803561ffff8116811461218b57600080fd5b6000602082840312156121ec578081fd5b8135611f3681612803565b60008060408385031215612209578081fd5b823561221481612803565b9150602083013560ff81168114612229578182fd5b809150509250929050565b600060208284031215612245578081fd5b8151611f3681612818565b600060208284031215612261578081fd5b5035919050565b600060208284031215612279578081fd5b5051919050565b60008060408385031215612292578182fd5b82359150602083013561222981612803565b600080600080608085870312156122b9578182fd5b8435935060208501356122cb81612803565b92506122d9604086016121c9565b915060608501356122e981612818565b939692955090935050565b60008060408385031215612306578182fd5b50508035926020909101359150565b600080600060608486031215612329578283fd5b8335925060208401359150604084013561234281612803565b809150509250925092565b60008060008060808587031215612362578384fd5b84359350602085013592506122d9604086016121c9565b6000825161238b818460208701612786565b9190910192915050565b6001600160a01b0391909116815260200190565b6001600160a01b039384168152919092166020820152604081019190915260600190565b6001600160a01b03929092168252602082015260400190565b6000602082528251806020840152612405816040850160208701612786565b601f01601f19169190910160400192915050565b60208082526025908201527f6164643a20696e76616c6964206465706f7369742066656520626173697320706040820152646f696e747360d81b606082015260800190565b60208082526010908201526f4e6f7468696e6720746f20636c61696d60801b604082015260600190565b60208082526026908201527f4f776e61626c653a206e6577206f776e657220697320746865207a65726f206160408201526564647265737360d01b606082015260800190565b60208082526026908201527f416464726573733a20696e73756666696369656e742062616c616e636520666f6040820152651c8818d85b1b60d21b606082015260800190565b6020808252600990820152686465763a207775743f60b81b604082015260600190565b60208082526025908201527f7365743a20696e76616c6964206465706f7369742066656520626173697320706040820152646f696e747360d81b606082015260800190565b6020808252818101527f4f776e61626c653a2063616c6c6572206973206e6f7420746865206f776e6572604082015260600190565b6020808252601d908201527f416464726573733a2063616c6c20746f206e6f6e2d636f6e7472616374000000604082015260600190565b6020808252601290820152711dda5d1a191c985dce881b9bdd0819dbdbd960721b604082015260600190565b60208082526018908201527f736574466565416464726573733a20464f5242494444454e0000000000000000604082015260600190565b6020808252602a908201527f5361666545524332303a204552433230206f7065726174696f6e20646964206e6040820152691bdd081cdd58d8d9595960b21b606082015260800190565b61ffff91909116815260200190565b90815260200190565b9788526001600160a01b0396909616602088015260408701949094526060860192909252608085015261ffff1660a084015260c083015260e08201526101000190565b958652602086019490945260408501929092526060840152608083015260a082015260c00190565b6000821982111561272b5761272b6127ed565b500190565b60008261274b57634e487b7160e01b81526012600452602481fd5b500490565b600081600019048311821515161561276a5761276a6127ed565b500290565b600082821015612781576127816127ed565b500390565b60005b838110156127a1578181015183820152602001612789565b83811115611de05750506000910152565b60006000198214156127c6576127c66127ed565b5060010190565b600060ff821660ff8114156127e4576127e46127ed565b60010192915050565b634e487b7160e01b600052601160045260246000fd5b6001600160a01b0381168114611b4957600080fd5b8015158114611b4957600080fdfea26469706673582212204ab3daff4765589d51a205f03e99d9a526a50ee65e6ece267aca207a99eb275f64736f6c63430008000033",
  "immutableReferences": {},
  "source": "// SPDX-License-Identifier: MIT\n\npragma solidity ^0.8.0;\n\nimport \"../oz/utils/structs/EnumerableSet.sol\";\nimport \"../oz/access/Ownable.sol\";\nimport \"../oz/token/ERC20/ERC20.sol\";\nimport \"../oz/token/ERC20/IERC20.sol\";\nimport \"../oz/token/ERC20/utils/SafeERC20.sol\";\nimport \"../oz/utils/math/Math.sol\";\n\nimport \"./SharesToken.sol\";\n\n\ninterface IShares {\n    function sendTo(address to, uint amount) external;\n    function addMoney(uint amount) external;\n}\n\ncontract MasterChef is Ownable {\n    using SafeERC20 for IERC20;\n\n    // Info of each user.\n    struct UserInfo {\n        uint amount;         // How many LP tokens the user has provided.\n        uint rewardKept;\n        uint rewardDebt;     // Reward debt. See explanation below.\n        uint rewardSharesKept;\n        uint rewardSharesDebt;     // Reward debt. See explanation below.\n        uint lastClaimedBlock;  // last powered Block\n    }\n\n    // Info of each pool.\n    struct PoolInfo {\n        uint amount;\n        IERC20 lpToken;           // Address of LP token contract.\n        uint allocPoint;       // How many allocation points assigned to this pool. SHs to distribute per block.\n        uint lastRewardBlock;  // Last block number that Shs distribution occurs.\n        uint accShPerPower;   // Accumulated Shs per share, times 1e12. See below.\n        uint16 depositFeeBP;      // Deposit fee in basis points\n\n        uint lastSharesRewardBlock;  // Last block number that Shs distribution occurs.\n        uint accSharesPerPower;   // Accumulated Shs per share, times 1e12. See below.\n    }\n\n    SharesToken public sh;\n    IShares public shares;\n    // Dev address.\n    address public devaddr;\n    // SH tokens created per block.\n    uint public shPerBlock;\n\n    // Deposit Fee address\n    address public feeAddress;\n\n    // Info of each pool.\n    PoolInfo[] public poolInfo;\n\n    // Info of each user that stakes LP tokens.\n    mapping (uint => mapping (address => UserInfo)) public userInfo;\n    // Block number in which the user made token withdrawal from pool 0\n    mapping (address => uint) public lastTokenWithdrawBlock;\n\n    // Total allocation points. Must be the sum of all allocation points in all pools.\n    uint public totalAllocPoint = 0;\n    // The block number when Sh mining starts.\n    uint public startBlock;\n\n    // Referrers\n    mapping (address => address) public referrer;\n    mapping (address => mapping (uint8 => uint)) public referrals;\n    mapping (address => uint) public referrerReward;\n    uint16[] public referrerRewardRate = [ 600, 300, 100 ];\n\n    event Deposit(address indexed user, uint indexed pid, uint amount);\n    event Withdraw(address indexed user, uint indexed pid, uint amount);\n    event Claim(address indexed user, uint indexed pid, uint amount);\n    event EmergencyWithdraw(address indexed user, uint indexed pid, uint256 amount);\n\n    constructor (\n        SharesToken _sh,\n        IShares _shares,\n        address _devaddr,\n        address _feeAddress,\n        uint _shPerBlock,\n        uint _startBlock,\n        uint _shAllocPoint\n    ) {\n        require(_devaddr != address(0), \"address can't be 0\");\n        require(_feeAddress != address(0), \"address can't be 0\");\n\n        sh = _sh;\n        shares = _shares;\n        devaddr = _devaddr;\n        feeAddress = _feeAddress;\n        shPerBlock = _shPerBlock;\n        startBlock = _startBlock;\n\n        totalAllocPoint = _shAllocPoint;\n        poolInfo.push(PoolInfo({\n            amount: 0,\n            lpToken: _sh,\n            allocPoint: _shAllocPoint,\n            lastRewardBlock: startBlock,\n            accShPerPower: 0,\n            depositFeeBP: 0,\n            lastSharesRewardBlock: startBlock,\n            accSharesPerPower: 0\n        }));\n    }\n\n    function poolLength() external view returns (uint) {\n        return poolInfo.length;\n    }\n\n    // Add a new lp to the pool. Can only be called by the owner.\n    // XXX DO NOT add the same LP token more than once. Rewards will be messed up if you do.\n    function add(uint _allocPoint, IERC20 _lpToken, uint16 _depositFeeBP, bool _withUpdate) public onlyOwner {\n        require(_depositFeeBP <= 10000, \"add: invalid deposit fee basis points\");\n        if (_withUpdate) {\n            _massUpdatePools();\n        }\n\n        uint lastRewardBlock = block.number > startBlock ? block.number : startBlock;\n        totalAllocPoint += _allocPoint;\n        poolInfo.push(PoolInfo({\n            amount:0,\n            lpToken: _lpToken,\n            allocPoint: _allocPoint,\n            lastRewardBlock: lastRewardBlock,\n            accShPerPower: 0,\n            depositFeeBP: _depositFeeBP,\n            lastSharesRewardBlock: lastRewardBlock,\n            accSharesPerPower: 0\n        }));\n    }\n\n    // Update the given pool's SH allocation point and deposit fee. Can only be called by the owner.\n    function set(uint _pid, uint _allocPoint, uint16 _depositFeeBP, bool _withUpdate) public onlyOwner {\n        require(_depositFeeBP <= 10000, \"set: invalid deposit fee basis points\");\n        if (_withUpdate) {\n            _massUpdatePools();\n        }\n        totalAllocPoint = totalAllocPoint - poolInfo[_pid].allocPoint + _allocPoint;\n        poolInfo[_pid].allocPoint = _allocPoint;\n        poolInfo[_pid].depositFeeBP = _depositFeeBP;\n    }\n\n    // Update dev address by the previous dev.\n    function dev(address _devaddr) public {\n        require(msg.sender == devaddr, \"dev: wut?\");\n        devaddr = _devaddr;\n    }\n\n    function setFeeAddress(address _feeAddress) public {\n        require(msg.sender == feeAddress, \"setFeeAddress: FORBIDDEN\");\n        feeAddress = _feeAddress;\n    }\n\n    //Pancake has to add hidden dummy pools inorder to alter the emission, here we make it simple and transparent to all.\n    function updateEmissionRate(uint _shPerBlock) public onlyOwner {\n        _massUpdatePools();\n        shPerBlock = _shPerBlock;\n    }\n\n    // View function to see pending SHs on frontend.\n    function pendingSh(uint _pid, address _user) external view returns (uint) {\n        UserInfo storage user = userInfo[_pid][_user];\n        return user.rewardKept + _pendingSh(_pid, _user);\n    }\n\n    // View function to see pending SHs on frontend.\n    function pendingShares(uint _pid, address _user) external view returns (uint) {\n        UserInfo storage user = userInfo[_pid][_user];\n        return user.rewardSharesKept + _pendingShares(_pid, _user);\n    }\n\n    // Update reward variables for all pools. Be careful of gas spending!\n    function _massUpdatePools() internal {\n        uint length = poolInfo.length;\n        for (uint pid = 0; pid < length; ++pid) {\n            _updatePool(pid);\n        }\n    }\n\n    // Update reward variables of the given pool to be up-to-date.\n    function _updatePool(uint _pid) internal {\n        PoolInfo storage pool = poolInfo[_pid];\n        if (block.number <= pool.lastRewardBlock) {\n            return;\n        }\n\n        if (pool.amount == 0 || pool.allocPoint == 0) {\n            pool.lastRewardBlock = block.number;\n            pool.lastSharesRewardBlock = block.number;\n            return;\n        }\n\n        uint blockAmount = block.number - pool.lastRewardBlock;\n        uint shReward = blockAmount * shPerBlock * pool.allocPoint / totalAllocPoint;\n        sh.mint(devaddr, shReward / 10);\n        sh.mint(address(this), shReward);\n        pool.accShPerPower += shReward * 1e12 / pool.amount;\n        pool.lastRewardBlock = block.number;\n\n        uint sharesMultiplier = (block.number - pool.lastSharesRewardBlock) / (28800 * 2);\n        if (sharesMultiplier > 0) {\n            uint sharesReward = sharesMultiplier / 3;\n            pool.accSharesPerPower += sharesReward * 1e12 / pool.amount;\n            pool.lastSharesRewardBlock = block.number;\n        }\n    }\n\n    // Deposit LP tokens to MasterChef for SH allocation.\n    function deposit(uint _pid, uint _amount, address _ref) public {\n        PoolInfo storage pool = poolInfo[_pid];\n        UserInfo storage user = userInfo[_pid][msg.sender];\n        _updatePool(_pid);\n        _keepPendingShAndShares(_pid, msg.sender);\n\n        if(_amount > 0) {\n            pool.lpToken.safeTransferFrom(address(msg.sender), address(this), _amount);\n\n            if(pool.depositFeeBP > 0){\n                uint depositFee = _amount * pool.depositFeeBP / 10000;\n                pool.lpToken.safeTransfer(feeAddress, depositFee * 3 / 5);\n                shares.addMoney(depositFee * 2 / 5);\n\n                _amount -= depositFee;\n            }\n\n            user.amount += _amount;\n            pool.amount += _amount;\n        }\n\n        user.rewardDebt = user.amount * pool.accShPerPower / 1e12;\n        user.rewardSharesDebt = user.amount * pool.accSharesPerPower / 1e12;\n\n        if (user.lastClaimedBlock == 0) {\n            user.lastClaimedBlock = block.number;\n        }\n\n        if (_ref != address(0) && _ref != msg.sender && referrer[msg.sender] == address(0)) {\n            referrer[msg.sender] = _ref;\n\n            // direct ref\n            referrals[_ref][0] += 1;\n            referrals[_ref][1] += referrals[msg.sender][0];\n            referrals[_ref][2] += referrals[msg.sender][1];\n\n            // direct refs from direct ref\n            address ref1 = referrer[_ref];\n            if (ref1 != address(0)) {\n                referrals[ref1][1] += 1;\n                referrals[ref1][2] += referrals[msg.sender][0];\n\n                // their refs\n                address ref2 = referrer[ref1];\n                if (ref2 != address(0)) {\n                    referrals[ref2][2] += 1;\n                }\n            }\n        }\n\n        emit Deposit(msg.sender, _pid, _amount);\n    }\n\n    // Withdraw LP tokens from MasterChef.\n    function withdraw(uint _pid, uint _amount) public {\n        PoolInfo storage pool = poolInfo[_pid];\n        UserInfo storage user = userInfo[_pid][msg.sender];\n        require(user.amount >= _amount, \"withdraw: not good\");\n\n        _updatePool(_pid);\n        _keepPendingShAndShares(_pid, msg.sender);\n\n        if (_amount > 0) {\n            pool.lpToken.safeTransfer(address(msg.sender), _amount);\n            user.amount -= _amount;\n            pool.amount -= _amount;\n        }\n\n        user.rewardDebt = user.amount * pool.accShPerPower / 1e12;\n        user.rewardSharesDebt = user.amount * pool.accSharesPerPower / 1e12;\n\n        if (_pid == 0) {\n            lastTokenWithdrawBlock[msg.sender] = block.number;\n        }\n\n        emit Withdraw(msg.sender, _pid, _amount);\n    }\n\n    // Withdraw without caring about rewards. EMERSHCY ONLY.\n    function emergencyWithdraw(uint _pid) public {\n        PoolInfo storage pool = poolInfo[_pid];\n        UserInfo storage user = userInfo[_pid][msg.sender];\n\n        pool.amount -= user.amount;\n        uint amount = user.amount;\n        user.amount = 0;\n        user.rewardDebt = 0;\n        user.rewardKept = 0;\n        user.rewardSharesDebt = 0;\n        user.rewardSharesKept = 0;\n\n        if (_pid == 0) {\n            lastTokenWithdrawBlock[msg.sender] = block.number;\n        }\n\n        pool.lpToken.safeTransfer(address(msg.sender), amount);\n        emit EmergencyWithdraw(msg.sender, _pid, amount);\n    }\n\n    function _rewardReferrers(uint baseAmount) internal {\n        address ref = msg.sender;\n        for (uint8 i = 0; i < referrerRewardRate.length; i++) {\n            ref = referrer[ref];\n            if (ref == address(0)) {\n                break;\n            }\n\n            uint reward = baseAmount * referrerRewardRate[i] / 10000;\n            sh.mint(ref, reward);\n            referrerReward[ref] += reward;\n        }\n    }\n\n    function claim(uint _pid) external {\n        PoolInfo storage pool = poolInfo[_pid];\n        UserInfo storage user = userInfo[_pid][msg.sender];\n\n        _updatePool(_pid);\n\n        uint pending = user.rewardKept + _pendingSh(_pid, msg.sender);\n\n        require(pending > 0, \"Nothing to claim\");\n\n        _safeShTransfer(msg.sender, pending);\n        _rewardReferrers(pending);\n\n        uint multiplier = (block.number - Math.max(lastTokenWithdrawBlock[msg.sender], user.lastClaimedBlock)) * 10 / 288; //10% per 24 hours\n        if (multiplier > 50) {\n            multiplier = 50;\n        }\n        if (multiplier > 0) {\n            sh.mint(msg.sender, pending * multiplier / 100);\n        }\n\n        emit Claim(msg.sender, _pid, pending + pending * multiplier / 100);\n\n        user.rewardKept = 0;\n        user.rewardDebt = user.amount * pool.accShPerPower / 1e12;\n        user.lastClaimedBlock = block.number;\n    }\n\n    function reinvest(uint _pid) external {\n        PoolInfo storage pool = poolInfo[_pid];\n        UserInfo storage user = userInfo[_pid][msg.sender];\n\n        _updatePool(_pid);\n\n        uint pending = user.rewardKept + _pendingSh(_pid, msg.sender);\n\n        require(pending > 0, \"Nothing to claim\");\n\n        _rewardReferrers(pending);\n\n        uint multiplier = (block.number - Math.max(lastTokenWithdrawBlock[msg.sender], user.lastClaimedBlock)) * 10 / 288; //10% per 24 hours\n        if (multiplier > 50) {\n            multiplier = 50;\n        }\n        if (multiplier > 0) {\n            sh.mint(address(this), pending * multiplier / 100);\n        }\n\n        user.rewardKept = 0;\n        user.rewardDebt = user.amount * pool.accShPerPower / 1e12;\n\n        // adding to pool 0\n        uint _amount = pending + pending * multiplier / 100;\n\n        PoolInfo storage reinvestPool = poolInfo[0];\n        UserInfo storage reinvestUser = userInfo[0][msg.sender];\n\n        _updatePool(0);\n        _keepPendingShAndShares(0, msg.sender);\n\n        reinvestPool.amount += _amount;\n        reinvestUser.amount += _amount;\n        reinvestUser.rewardDebt = reinvestUser.amount * reinvestPool.accShPerPower / 1e12;\n        reinvestUser.rewardSharesDebt = reinvestUser.amount * reinvestPool.accSharesPerPower / 1e12;\n    }\n\n\n    function claimShares(uint _pid) internal {\n        PoolInfo storage pool = poolInfo[_pid];\n        UserInfo storage user = userInfo[_pid][msg.sender];\n\n        _updatePool(_pid);\n\n        uint pending = user.rewardSharesKept + _pendingShares(_pid, msg.sender);\n\n        require(pending > 0, \"Nothing to claim\");\n\n        shares.sendTo(msg.sender, pending);\n\n        user.rewardSharesKept = 0;\n        user.rewardSharesDebt = user.amount * pool.accSharesPerPower / 1e12;\n    }\n\n    function _keepPendingShAndShares(uint _pid, address _user) internal {\n        UserInfo storage user = userInfo[_pid][_user];\n        user.rewardKept += _pendingSh(_pid, _user);\n        user.rewardSharesKept += _pendingShares(_pid, _user);\n    }\n\n    // DO NOT includes kept reward\n    function _pendingSh(uint _pid, address _user) internal view returns (uint) {\n        PoolInfo storage pool = poolInfo[_pid];\n        UserInfo storage user = userInfo[_pid][_user];\n        uint accShPerPower = pool.accShPerPower;\n\n        if (block.number > pool.lastRewardBlock && pool.amount != 0) {\n            uint blockAmount = block.number - pool.lastRewardBlock;\n            uint shReward = blockAmount * shPerBlock * pool.allocPoint / totalAllocPoint;\n            accShPerPower += shReward * 1e12 / pool.amount;\n        }\n\n        return user.amount * accShPerPower / 1e12 - user.rewardDebt;\n    }\n\n    // DO NOT includes kept reward\n    function _pendingShares(uint _pid, address _user) internal view returns (uint) {\n        PoolInfo storage pool = poolInfo[_pid];\n        UserInfo storage user = userInfo[_pid][_user];\n        uint accSharesPerPower = pool.accSharesPerPower;\n\n        if (_pid > 2) {\n            return 0;\n        }\n\n        if (block.number > pool.lastRewardBlock && pool.amount != 0) {\n            uint blockAmount = (block.number - pool.lastSharesRewardBlock) / (28800 * 2);\n            uint sharesReward = blockAmount * 1e18 / 3;\n            accSharesPerPower += sharesReward * 1e12 / pool.amount;\n        }\n\n        return user.amount * accSharesPerPower / 1e12 - user.rewardSharesDebt;\n    }\n\n    // Safe sh transfer function, just in case if rounding error causes pool to not have enough SHs.\n    function _safeShTransfer(address _to, uint _amount) internal {\n        uint shBal = sh.balanceOf(address(this));\n        if (_amount > shBal) {\n            sh.transfer(_to, shBal);\n        } else {\n            sh.transfer(_to, _amount);\n        }\n    }\n}\n",
  "sourcePath": "/Users/alexei120991/Documents/Project/RUNNER/_Oleg/main/contracts/MasterChef.sol",
  "compiler": {
    "name": "solc",
    "version": "0.8.0+commit.c7dfd78e.Emscripten.clang"
  },
  "schemaVersion": "3.3.4",
  "updatedAt": "2021-07-08T13:17:56.164Z",
  "devdoc": {
    "kind": "dev",
    "methods": {
      "owner()": {
        "details": "Returns the address of the current owner."
      },
      "renounceOwnership()": {
        "details": "Leaves the contract without owner. It will not be possible to call `onlyOwner` functions anymore. Can only be called by the current owner. NOTE: Renouncing ownership will leave the contract without an owner, thereby removing any functionality that is only available to the owner."
      },
      "transferOwnership(address)": {
        "details": "Transfers ownership of the contract to a new account (`newOwner`). Can only be called by the current owner."
      }
    },
    "version": 1
  },
  "userdoc": {
    "kind": "user",
    "methods": {},
    "version": 1
  }
}