{
  "contractName": "Proxy",
  "abi": [
    {
      "inputs": [
        {
          "internalType": "contract GenNFT",
          "name": "_nft",
          "type": "address"
        },
        {
          "internalType": "contract IEvolution",
          "name": "_evo",
          "type": "address"
        }
      ],
      "stateMutability": "nonpayable",
      "type": "constructor"
    },
    {
      "anonymous": false,
      "inputs": [
        {
          "indexed": true,
          "internalType": "address",
          "name": "previousOwner",
          "type": "address"
        },
        {
          "indexed": true,
          "internalType": "address",
          "name": "newOwner",
          "type": "address"
        }
      ],
      "name": "OwnershipTransferred",
      "type": "event"
    },
    {
      "inputs": [],
      "name": "bonusPerBurnedNFT",
      "outputs": [
        {
          "internalType": "uint256",
          "name": "",
          "type": "uint256"
        }
      ],
      "stateMutability": "view",
      "type": "function"
    },
    {
      "inputs": [],
      "name": "evo",
      "outputs": [
        {
          "internalType": "contract IEvolution",
          "name": "",
          "type": "address"
        }
      ],
      "stateMutability": "view",
      "type": "function"
    },
    {
      "inputs": [],
      "name": "nft",
      "outputs": [
        {
          "internalType": "contract GenNFT",
          "name": "",
          "type": "address"
        }
      ],
      "stateMutability": "view",
      "type": "function"
    },
    {
      "inputs": [
        {
          "internalType": "address",
          "name": "",
          "type": "address"
        },
        {
          "internalType": "address",
          "name": "",
          "type": "address"
        },
        {
          "internalType": "uint256",
          "name": "",
          "type": "uint256"
        },
        {
          "internalType": "bytes",
          "name": "",
          "type": "bytes"
        }
      ],
      "name": "onERC721Received",
      "outputs": [
        {
          "internalType": "bytes4",
          "name": "",
          "type": "bytes4"
        }
      ],
      "stateMutability": "nonpayable",
      "type": "function"
    },
    {
      "inputs": [],
      "name": "owner",
      "outputs": [
        {
          "internalType": "address",
          "name": "",
          "type": "address"
        }
      ],
      "stateMutability": "view",
      "type": "function"
    },
    {
      "inputs": [],
      "name": "renounceOwnership",
      "outputs": [],
      "stateMutability": "nonpayable",
      "type": "function"
    },
    {
      "inputs": [
        {
          "internalType": "address",
          "name": "newOwner",
          "type": "address"
        }
      ],
      "name": "transferOwnership",
      "outputs": [],
      "stateMutability": "nonpayable",
      "type": "function"
    },
    {
      "inputs": [
        {
          "internalType": "address",
          "name": "user",
          "type": "address"
        }
      ],
      "name": "bonus",
      "outputs": [
        {
          "internalType": "uint256",
          "name": "",
          "type": "uint256"
        }
      ],
      "stateMutability": "view",
      "type": "function"
    },
    {
      "inputs": [
        {
          "internalType": "uint256",
          "name": "nftId",
          "type": "uint256"
        }
      ],
      "name": "getNFTPowerBonusBlocks",
      "outputs": [
        {
          "internalType": "uint256",
          "name": "",
          "type": "uint256"
        }
      ],
      "stateMutability": "view",
      "type": "function"
    },
    {
      "inputs": [],
      "name": "getNFTPowerBonus",
      "outputs": [
        {
          "internalType": "uint256",
          "name": "",
          "type": "uint256"
        }
      ],
      "stateMutability": "view",
      "type": "function"
    },
    {
      "inputs": [
        {
          "internalType": "contract GenNFT",
          "name": "_nft",
          "type": "address"
        }
      ],
      "name": "updateNFT",
      "outputs": [],
      "stateMutability": "nonpayable",
      "type": "function"
    },
    {
      "inputs": [
        {
          "internalType": "contract IEvolution",
          "name": "_evo",
          "type": "address"
        }
      ],
      "name": "updateEvo",
      "outputs": [],
      "stateMutability": "nonpayable",
      "type": "function"
    },
    {
      "inputs": [
        {
          "internalType": "uint256",
          "name": "_bonusPerBurnedNFT",
          "type": "uint256"
        }
      ],
      "name": "updateBonus",
      "outputs": [],
      "stateMutability": "nonpayable",
      "type": "function"
    }
  ],
  "bytecode": "0x6080604052603260035534801561001557600080fd5b5060405161095f38038061095f833981016040819052610034916100bd565b600061003e6100b9565b600080546001600160a01b0319166001600160a01b0383169081178255604051929350917f8be0079c531659141344cd1fd0a4f28419497f9722a3daafe3b4186f6b6457e0908290a350600180546001600160a01b039384166001600160a01b0319918216179091556002805492909316911617905561010e565b3390565b600080604083850312156100cf578182fd5b82516100da816100f6565b60208401519092506100eb816100f6565b809150509250929050565b6001600160a01b038116811461010b57600080fd5b50565b6108428061011d6000396000f3fe608060405234801561001057600080fd5b50600436106100cf5760003560e01c806372c1bc191161008c578063cc4d088411610066578063cc4d088414610185578063d8cb4aa31461018d578063f2ef62dd146101a0578063f2fde38b146101a8576100cf565b806372c1bc19146101625780638da5cb5b1461016a5780639f8dbb7b14610172576100cf565b8063150b7a02146100d457806347ccca02146100fd57806356e585f3146101125780635be68e93146101275780636a6399311461013a578063715018a61461015a575b600080fd5b6100e76100e23660046105a0565b6101bb565b6040516100f491906106fb565b60405180910390f35b6101056101cb565b6040516100f491906106e7565b61012561012036600461057d565b6101da565b005b61012561013536600461057d565b610244565b61014d6101483660046106b7565b6102a5565b6040516100f4919061078b565b610125610341565b61014d6103ca565b6101056103d0565b6101256101803660046106b7565b6103df565b61014d610423565b61014d61019b36600461057d565b610429565b6101056104aa565b6101256101b636600461057d565b6104b9565b630a85bd0160e11b949350505050565b6001546001600160a01b031681565b6101e2610579565b6001600160a01b03166101f36103d0565b6001600160a01b0316146102225760405162461bcd60e51b815260040161021990610756565b60405180910390fd5b600280546001600160a01b0319166001600160a01b0392909216919091179055565b61024c610579565b6001600160a01b031661025d6103d0565b6001600160a01b0316146102835760405162461bcd60e51b815260040161021990610756565b600180546001600160a01b0319166001600160a01b0392909216919091179055565b600154604051634331052360e11b8152600091620f4240916001600160a01b03909116906386620a46906102dd90869060040161078b565b60606040518083038186803b1580156102f557600080fd5b505afa158015610309573d6000803e3d6000fd5b505050506040513d601f19601f8201168201806040525081019061032d919061065c565b6020015161033b91906107be565b92915050565b610349610579565b6001600160a01b031661035a6103d0565b6001600160a01b0316146103805760405162461bcd60e51b815260040161021990610756565b600080546040516001600160a01b03909116907f8be0079c531659141344cd1fd0a4f28419497f9722a3daafe3b4186f6b6457e0908390a3600080546001600160a01b0319169055565b60035490565b6000546001600160a01b031690565b6103e7610579565b6001600160a01b03166103f86103d0565b6001600160a01b03161461041e5760405162461bcd60e51b815260040161021990610756565b600355565b60035481565b60025460405163d8cb4aa360e01b81526000916001600160a01b03169063d8cb4aa39061045a9085906004016106e7565b60206040518083038186803b15801561047257600080fd5b505afa158015610486573d6000803e3d6000fd5b505050506040513d601f19601f8201168201806040525081019061033b91906106cf565b6002546001600160a01b031681565b6104c1610579565b6001600160a01b03166104d26103d0565b6001600160a01b0316146104f85760405162461bcd60e51b815260040161021990610756565b6001600160a01b03811661051e5760405162461bcd60e51b815260040161021990610710565b600080546040516001600160a01b03808516939216917f8be0079c531659141344cd1fd0a4f28419497f9722a3daafe3b4186f6b6457e091a3600080546001600160a01b0319166001600160a01b0392909216919091179055565b3390565b60006020828403121561058e578081fd5b8135610599816107f4565b9392505050565b600080600080608085870312156105b5578283fd5b84356105c0816107f4565b93506020858101356105d1816107f4565b935060408601359250606086013567ffffffffffffffff808211156105f4578384fd5b818801915088601f830112610607578384fd5b813581811115610619576106196107de565b61062b601f8201601f19168501610794565b91508082528984828501011115610640578485fd5b8084840185840137810190920192909252939692955090935050565b60006060828403121561066d578081fd5b6040516060810181811067ffffffffffffffff82111715610690576106906107de565b80604052508251815260208301516020820152604083015160408201528091505092915050565b6000602082840312156106c8578081fd5b5035919050565b6000602082840312156106e0578081fd5b5051919050565b6001600160a01b0391909116815260200190565b6001600160e01b031991909116815260200190565b60208082526026908201527f4f776e61626c653a206e6577206f776e657220697320746865207a65726f206160408201526564647265737360d01b606082015260800190565b6020808252818101527f4f776e61626c653a2063616c6c6572206973206e6f7420746865206f776e6572604082015260600190565b90815260200190565b60405181810167ffffffffffffffff811182821017156107b6576107b66107de565b604052919050565b6000826107d957634e487b7160e01b81526012600452602481fd5b500690565b634e487b7160e01b600052604160045260246000fd5b6001600160a01b038116811461080957600080fd5b5056fea2646970667358221220354f4ebca5c79d64494e72a6e960171d5b6764ecb19347830521e3cd0bf7911264736f6c63430008000033",
  "immutableReferences": {},
  "source": "// SPDX-License-Identifier: MIT\n\npragma solidity 0.8.0;\n\nimport \"../oz/utils/structs/EnumerableSet.sol\";\nimport \"../oz/access/Ownable.sol\";\nimport \"../oz/token/ERC20/ERC20.sol\";\nimport \"../oz/token/ERC20/IERC20.sol\";\nimport \"../oz/token/ERC20/utils/SafeERC20.sol\";\nimport \"../oz/token/ERC721/utils/ERC721Holder.sol\";\nimport '../oz/token/ERC721/IERC721.sol';\nimport \"../oz/utils/math/SafeMath.sol\";\nimport \"./GenToken.sol\";\nimport \"./GenNFT.sol\";\n\ninterface IEvolution {\n    function bonus(address user) external view returns (uint);\n}\n\ncontract Proxy is Ownable, ERC721Holder {\n    using SafeERC20 for IERC20;\n    using SafeMath for uint;\n    \n    \n    GenNFT public nft;\n    IEvolution public evo;\n    uint public bonusPerBurnedNFT = 50;\n    \n    constructor(\n        GenNFT _nft,\n        IEvolution _evo\n    ) public {\n        nft = _nft;\n        evo = _evo;\n    }\n    \n    function bonus(address user) public view returns (uint) {\n        return evo.bonus(user);\n    }\n    \n    function getNFTPowerBonusBlocks(uint nftId) external view returns (uint) {\n        return nft.getTypeByTokenId(nftId).bonus % 1000000; //first 6 digits\n    }\n    \n    function getNFTPowerBonus() external view returns (uint) {\n        return bonusPerBurnedNFT;\n    }\n    \n    function updateNFT(GenNFT _nft) public onlyOwner {\n        nft = _nft;\n    }\n    \n    function updateEvo(IEvolution _evo) public onlyOwner {\n        evo = _evo;\n    }\n    \n    function updateBonus(uint _bonusPerBurnedNFT) public onlyOwner {\n        bonusPerBurnedNFT = _bonusPerBurnedNFT;\n    }\n}",
  "sourcePath": "/Users/alexei120991/Documents/Project/RUNNER/EVA/Test/contracts/Proxy.sol",
  "compiler": {
    "name": "solc",
    "version": "0.8.0+commit.c7dfd78e.Emscripten.clang"
  },
  "schemaVersion": "3.3.4",
  "updatedAt": "2021-07-08T12:53:23.061Z",
  "devdoc": {
    "kind": "dev",
    "methods": {
      "onERC721Received(address,address,uint256,bytes)": {
        "details": "See {IERC721Receiver-onERC721Received}. Always returns `IERC721Receiver.onERC721Received.selector`."
      },
      "owner()": {
        "details": "Returns the address of the current owner."
      },
      "renounceOwnership()": {
        "details": "Leaves the contract without owner. It will not be possible to call `onlyOwner` functions anymore. Can only be called by the current owner. NOTE: Renouncing ownership will leave the contract without an owner, thereby removing any functionality that is only available to the owner."
      },
      "transferOwnership(address)": {
        "details": "Transfers ownership of the contract to a new account (`newOwner`). Can only be called by the current owner."
      }
    },
    "version": 1
  },
  "userdoc": {
    "kind": "user",
    "methods": {},
    "version": 1
  }
}