{
  "contractName": "Shares",
  "abi": [
    {
      "inputs": [
        {
          "internalType": "contract IERC20",
          "name": "_token",
          "type": "address"
        },
        {
          "internalType": "uint256",
          "name": "_startBlock",
          "type": "uint256"
        }
      ],
      "stateMutability": "nonpayable",
      "type": "constructor"
    },
    {
      "anonymous": false,
      "inputs": [
        {
          "indexed": true,
          "internalType": "address",
          "name": "previousOwner",
          "type": "address"
        },
        {
          "indexed": true,
          "internalType": "address",
          "name": "newOwner",
          "type": "address"
        }
      ],
      "name": "OwnershipTransferred",
      "type": "event"
    },
    {
      "inputs": [],
      "name": "owner",
      "outputs": [
        {
          "internalType": "address",
          "name": "",
          "type": "address"
        }
      ],
      "stateMutability": "view",
      "type": "function"
    },
    {
      "inputs": [],
      "name": "percent",
      "outputs": [
        {
          "internalType": "uint256",
          "name": "",
          "type": "uint256"
        }
      ],
      "stateMutability": "view",
      "type": "function"
    },
    {
      "inputs": [],
      "name": "renounceOwnership",
      "outputs": [],
      "stateMutability": "nonpayable",
      "type": "function"
    },
    {
      "inputs": [
        {
          "internalType": "uint256",
          "name": "",
          "type": "uint256"
        }
      ],
      "name": "sharesPrice",
      "outputs": [
        {
          "internalType": "uint256",
          "name": "",
          "type": "uint256"
        }
      ],
      "stateMutability": "view",
      "type": "function"
    },
    {
      "inputs": [],
      "name": "token",
      "outputs": [
        {
          "internalType": "contract IERC20",
          "name": "",
          "type": "address"
        }
      ],
      "stateMutability": "view",
      "type": "function"
    },
    {
      "inputs": [
        {
          "internalType": "address",
          "name": "newOwner",
          "type": "address"
        }
      ],
      "name": "transferOwnership",
      "outputs": [],
      "stateMutability": "nonpayable",
      "type": "function"
    },
    {
      "inputs": [],
      "name": "currentCircle",
      "outputs": [
        {
          "internalType": "uint256",
          "name": "",
          "type": "uint256"
        }
      ],
      "stateMutability": "view",
      "type": "function"
    },
    {
      "inputs": [
        {
          "internalType": "address",
          "name": "to",
          "type": "address"
        },
        {
          "internalType": "uint256",
          "name": "amount",
          "type": "uint256"
        }
      ],
      "name": "sendTo",
      "outputs": [],
      "stateMutability": "nonpayable",
      "type": "function"
    },
    {
      "inputs": [
        {
          "internalType": "uint256",
          "name": "amount",
          "type": "uint256"
        }
      ],
      "name": "addMoney",
      "outputs": [],
      "stateMutability": "nonpayable",
      "type": "function"
    },
    {
      "inputs": [
        {
          "internalType": "uint256",
          "name": "amount",
          "type": "uint256"
        }
      ],
      "name": "addMoneyAndRecalculate",
      "outputs": [],
      "stateMutability": "nonpayable",
      "type": "function"
    },
    {
      "inputs": [
        {
          "internalType": "uint256",
          "name": "_percent",
          "type": "uint256"
        }
      ],
      "name": "setPercent",
      "outputs": [],
      "stateMutability": "nonpayable",
      "type": "function"
    },
    {
      "inputs": [
        {
          "internalType": "address",
          "name": "user",
          "type": "address"
        }
      ],
      "name": "addTrusted",
      "outputs": [],
      "stateMutability": "nonpayable",
      "type": "function"
    },
    {
      "inputs": [
        {
          "internalType": "address",
          "name": "user",
          "type": "address"
        }
      ],
      "name": "removeTrusted",
      "outputs": [],
      "stateMutability": "nonpayable",
      "type": "function"
    }
  ],
  "bytecode": "0x6080604052600560025561e10060045534801561001b57600080fd5b50604051610e57380380610e5783398101604081905261003a916100bb565b60006100446100b7565b600080546001600160a01b0319166001600160a01b0383169081178255604051929350917f8be0079c531659141344cd1fd0a4f28419497f9722a3daafe3b4186f6b6457e0908290a350600180546001600160a01b0319166001600160a01b0393909316929092179091556003556100f3565b3390565b600080604083850312156100cd578182fd5b82516001600160a01b03811681146100e3578283fd5b6020939093015192949293505050565b610d55806101026000396000f3fe608060405234801561001057600080fd5b50600436106100cf5760003560e01c8063d03148dc1161008c578063d55e62a011610066578063d55e62a014610183578063f2fde38b14610196578063fc0c546a146101a9578063fdd2c46b146101b1576100cf565b8063d03148dc1461014a578063d0bc1a881461015d578063d4d0d6e614610170576100cf565b806330a01456146100d457806370ba1113146100fd578063715018a6146101055780637154b8b51461010f5780638da5cb5b146101225780639e1a00aa14610137575b600080fd5b6100e76100e2366004610a2f565b6101b9565b6040516100f49190610c66565b60405180910390f35b6100e76101cb565b61010d6101d1565b005b61010d61011d366004610a2f565b610263565b61012a6102a7565b6040516100f49190610a7b565b61010d6101453660046109e6565b6102b6565b61010d610158366004610a2f565b61035c565b61010d61016b366004610a2f565b61047f565b61010d61017e3660046109cc565b6105d0565b61010d6101913660046109cc565b610633565b61010d6101a43660046109cc565b610693565b61012a610753565b6100e7610762565b60056020526000908152604090205481565b60025481565b6101d9610784565b6001600160a01b03166101ea6102a7565b6001600160a01b0316146102195760405162461bcd60e51b815260040161021090610bb0565b60405180910390fd5b600080546040516001600160a01b03909116907f8be0079c531659141344cd1fd0a4f28419497f9722a3daafe3b4186f6b6457e0908390a3600080546001600160a01b0319169055565b61026b610784565b6001600160a01b031661027c6102a7565b6001600160a01b0316146102a25760405162461bcd60e51b815260040161021090610bb0565b600255565b6000546001600160a01b031690565b3360009081526006602052604090205460ff16806102ec57506102d76102a7565b6001600160a01b0316336001600160a01b0316145b6103085760405162461bcd60e51b815260040161021090610b45565b61035882670de0b6b3a76400008360056000610322610762565b81526020019081526020016000205461033b9190610ca7565b6103459190610c87565b6001546001600160a01b03169190610788565b5050565b3360009081526006602052604090205460ff1680610392575061037d6102a7565b6001600160a01b0316336001600160a01b0316145b6103ae5760405162461bcd60e51b815260040161021090610b45565b6001546103c6906001600160a01b03163330846107e3565b6002546001546040516370a0823160e01b8152606492916001600160a01b0316906370a08231906103fb903090600401610a7b565b60206040518083038186803b15801561041357600080fd5b505afa158015610427573d6000803e3d6000fd5b505050506040513d601f19601f8201168201806040525081019061044b9190610a47565b6104559190610ca7565b61045f9190610c87565b6005600061046b610762565b815260208101919091526040016000205550565b3360009081526006602052604090205460ff16806104b557506104a06102a7565b6001600160a01b0316336001600160a01b0316145b6104d15760405162461bcd60e51b815260040161021090610b45565b6001546104e9906001600160a01b03163330846107e3565b60006104f3610762565b600081815260056020526040902054909150610358576002546001546040516370a0823160e01b8152606492916001600160a01b0316906370a082319061053e903090600401610a7b565b60206040518083038186803b15801561055657600080fd5b505afa15801561056a573d6000803e3d6000fd5b505050506040513d601f19601f8201168201806040525081019061058e9190610a47565b6105989190610ca7565b6105a29190610c87565b60008281526005602052604081209190915560028054600192906105c7908490610c6f565b90915550505050565b6105d8610784565b6001600160a01b03166105e96102a7565b6001600160a01b03161461060f5760405162461bcd60e51b815260040161021090610bb0565b6001600160a01b03166000908152600660205260409020805460ff19166001179055565b61063b610784565b6001600160a01b031661064c6102a7565b6001600160a01b0316146106725760405162461bcd60e51b815260040161021090610bb0565b6001600160a01b03166000908152600660205260409020805460ff19169055565b61069b610784565b6001600160a01b03166106ac6102a7565b6001600160a01b0316146106d25760405162461bcd60e51b815260040161021090610bb0565b6001600160a01b0381166106f85760405162461bcd60e51b815260040161021090610aff565b600080546040516001600160a01b03808516939216917f8be0079c531659141344cd1fd0a4f28419497f9722a3daafe3b4186f6b6457e091a3600080546001600160a01b0319166001600160a01b0392909216919091179055565b6001546001600160a01b031681565b6000600454600354436107759190610cc6565b61077f9190610c87565b905090565b3390565b6107de8363a9059cbb60e01b84846040516024016107a7929190610ab3565b60408051601f198184030181529190526020810180516001600160e01b03166001600160e01b03199093169290921790915261080a565b505050565b610804846323b872dd60e01b8585856040516024016107a793929190610a8f565b50505050565b600061085f826040518060400160405280602081526020017f5361666545524332303a206c6f772d6c6576656c2063616c6c206661696c6564815250856001600160a01b03166108999092919063ffffffff16565b8051909150156107de578080602001905181019061087d9190610a0f565b6107de5760405162461bcd60e51b815260040161021090610c1c565b60606108a884846000856108b2565b90505b9392505050565b6060824710156108d45760405162461bcd60e51b815260040161021090610b6a565b6108dd85610972565b6108f95760405162461bcd60e51b815260040161021090610be5565b600080866001600160a01b031685876040516109159190610a5f565b60006040518083038185875af1925050503d8060008114610952576040519150601f19603f3d011682016040523d82523d6000602084013e610957565b606091505b509150915061096782828661097c565b979650505050505050565b803b15155b919050565b6060831561098b5750816108ab565b82511561099b5782518084602001fd5b8160405162461bcd60e51b81526004016102109190610acc565b80356001600160a01b038116811461097757600080fd5b6000602082840312156109dd578081fd5b6108ab826109b5565b600080604083850312156109f8578081fd5b610a01836109b5565b946020939093013593505050565b600060208284031215610a20578081fd5b815180151581146108ab578182fd5b600060208284031215610a40578081fd5b5035919050565b600060208284031215610a58578081fd5b5051919050565b60008251610a71818460208701610cdd565b9190910192915050565b6001600160a01b0391909116815260200190565b6001600160a01b039384168152919092166020820152604081019190915260600190565b6001600160a01b03929092168252602082015260400190565b6000602082528251806020840152610aeb816040850160208701610cdd565b601f01601f19169190910160400192915050565b60208082526026908201527f4f776e61626c653a206e6577206f776e657220697320746865207a65726f206160408201526564647265737360d01b606082015260800190565b6020808252600b908201526a1b9bdd081d1c9d5cdd195960aa1b604082015260600190565b60208082526026908201527f416464726573733a20696e73756666696369656e742062616c616e636520666f6040820152651c8818d85b1b60d21b606082015260800190565b6020808252818101527f4f776e61626c653a2063616c6c6572206973206e6f7420746865206f776e6572604082015260600190565b6020808252601d908201527f416464726573733a2063616c6c20746f206e6f6e2d636f6e7472616374000000604082015260600190565b6020808252602a908201527f5361666545524332303a204552433230206f7065726174696f6e20646964206e6040820152691bdd081cdd58d8d9595960b21b606082015260800190565b90815260200190565b60008219821115610c8257610c82610d09565b500190565b600082610ca257634e487b7160e01b81526012600452602481fd5b500490565b6000816000190483118215151615610cc157610cc1610d09565b500290565b600082821015610cd857610cd8610d09565b500390565b60005b83811015610cf8578181015183820152602001610ce0565b838111156108045750506000910152565b634e487b7160e01b600052601160045260246000fdfea2646970667358221220d78dd678bf1ec63e2d35bf5202bb85fb1d3e5be0d72da9837300adc662d582b964736f6c63430008000033",
  "immutableReferences": {},
  "source": "// SPDX-License-Identifier: MIT\n\npragma solidity ^0.8.0;\n\nimport \"../oz/utils/structs/EnumerableSet.sol\";\nimport \"../oz/access/Ownable.sol\";\nimport \"../oz/token/ERC20/ERC20.sol\";\nimport \"../oz/token/ERC20/IERC20.sol\";\nimport \"../oz/token/ERC20/utils/SafeERC20.sol\";\n\ncontract Shares is Ownable {\n    using SafeERC20 for IERC20;\n\n    IERC20 public token;\n    uint public percent = 5;\n\n    uint startBlock;\n    uint circleTime = 57600;\n\n    mapping (uint => uint) public sharesPrice;\n\n    constructor(IERC20 _token, uint _startBlock) {\n        token = _token;\n        startBlock = _startBlock;\n    }\n\n    function currentCircle() public view returns (uint) {\n        return (block.number - startBlock) / circleTime;\n    }\n\n    function sendTo(address to, uint amount) external onlyTrusted {\n        token.safeTransfer(to, sharesPrice[currentCircle()] * amount / 1e18);\n    }\n\n    function addMoney(uint amount) external onlyTrusted {\n        token.safeTransferFrom(address(msg.sender), address(this), amount);\n\n        uint current = currentCircle();\n        if (sharesPrice[current] == 0) {\n            sharesPrice[current] = token.balanceOf(address(this)) * percent / 100;\n            percent += 1;\n        }\n    }\n\n    function addMoneyAndRecalculate(uint amount) external onlyTrusted {\n        token.safeTransferFrom(address(msg.sender), address(this), amount);\n        sharesPrice[currentCircle()] = token.balanceOf(address(this)) * percent / 100;\n    }\n\n    function setPercent(uint _percent) external onlyOwner {\n        percent = _percent;\n    }\n\n    mapping(address=>bool) private _isTrusted;\n    modifier onlyTrusted {\n        require(_isTrusted[msg.sender] || msg.sender == owner(), \"not trusted\");\n        _;\n    }\n\n    function addTrusted(address user) public onlyOwner {\n        _isTrusted[user] = true;\n    }\n\n    function removeTrusted(address user) public onlyOwner {\n        _isTrusted[user] = false;\n    }\n}\n",
  "sourcePath": "/Users/alexei120991/Documents/Project/RUNNER/_Oleg/main/contracts/Shares.sol",
  "compiler": {
    "name": "solc",
    "version": "0.8.0+commit.c7dfd78e.Emscripten.clang"
  },
  "schemaVersion": "3.3.4",
  "updatedAt": "2021-07-08T12:53:23.133Z",
  "devdoc": {
    "kind": "dev",
    "methods": {
      "owner()": {
        "details": "Returns the address of the current owner."
      },
      "renounceOwnership()": {
        "details": "Leaves the contract without owner. It will not be possible to call `onlyOwner` functions anymore. Can only be called by the current owner. NOTE: Renouncing ownership will leave the contract without an owner, thereby removing any functionality that is only available to the owner."
      },
      "transferOwnership(address)": {
        "details": "Transfers ownership of the contract to a new account (`newOwner`). Can only be called by the current owner."
      }
    },
    "version": 1
  },
  "userdoc": {
    "kind": "user",
    "methods": {},
    "version": 1
  }
}